:100000000C9434000C9446000C9446000C9446006A
:100010000C9446000C9446000C9446000C94460048
:100020000C9446000C9446000C9446000C94460038
:100030000C9446000C9446000C9446000C94460028
:100040000C9446000C9446000C9446000C94460018
:100050000C9446000C9446000C9446000C94460008
:100060000C9446000C94460011241FBECFEFD8E03C
:10007000DEBFCDBF11E0A0E0B1E001C01D92A13014
:10008000B107E1F70E9448000C94C8000C940000EE
:10009000509A589A88E99AE328EC30E0F9013197B0
:1000A000F1F70197D9F7589888E99AE328EC30E0FE
:1000B000F9013197F1F70197D9F71092B90082E071
:1000C0008093B80084E08093BC0084EA8093BC00F5
:1000D0008091BC0087FFFCCF8091B900887F883079
:1000E00009F04CC08AE38093BB0084E88093BC0095
:1000F0008091BC0087FFFCCF8091B900887F883158
:10010000E9F58FE08093BB0084E88093BC00809188
:10011000BC0087FFFCCF8091B900887F883271F5E1
:1001200084EA8093BC008091BC0087FFFCCF809163
:10013000B900887F803111F58BE38093BB0084E8A0
:100140008093BC008091BC0087FFFCCF8091B900F8
:10015000887F803499F484E88093BC008091BC004F
:1001600087FFFCCF8091B900887F883539F4809172
:10017000BB008093000184E98093BC008091000162
:10018000893411F4589A01C0589880E090E008959D
:04019000F894FFCF11
:00000001FF
