:100000000C9478000C9495000C9495000C94950039
:100010000C9495000C9495000C9495000C9495000C
:100020000C9495000C9495000C9495000C94DD04B0
:100030000C9495000C9495000C9495000C949500EC
:100040000C9488050C9495000C9495000C949500E4
:100050000C9495000C9495000C9495000C949500CC
:100060000C9495000C949500036EDB363D9A99999B
:10007000993DABAAAA2A3E000000803F084AD73B20
:100080003BCE016E84BCBFFDC12F3D6C74319ABD67
:1000900056833DDA3D00C77F11BED9E4BB4C3E918B
:1000A0006BAAAABE000000803F072C7AA5BA6CC5D7
:1000B00090DA3B9365FC8BBC53F810FD3C56928361
:1000C0004DBD879D3AB63DCBC9BF5BBE73DA0FC944
:1000D0003F05A84CCDB2D44EB93836A9020C50B960
:1000E000918688083CA6AAAA2ABE000000803F008C
:1000F00011241FBECFEFD8E0DEBFCDBF12E0A0E0DD
:10010000B1E0E6E2F1E302C005900D92AA3AB10730
:10011000D9F713E0AAEAB2E001C01D92A73BB107EC
:10012000E1F70E94A7080C9491180C9400006F92BC
:100130007F928F929F92AF92BF92CF92DF92EF9277
:10014000FF920F931F93962E872E782E692E5901BA
:100150006A010E941B1287FD11C0692D782D872D21
:10016000962D9701A8010E94EB1118162CF0A92CCE
:10017000B82CC72CD62C02C057016801B501C601A6
:100180001F910F91FF90EF90DF90CF90BF90AF90B5
:100190009F908F907F906F900895AF92BF92CF9273
:1001A000DF92EF92FF920F931F93CF93DF935C0147
:1001B0006B010F2EF0E0EF2EF0E0FF2EF0E00F2F9E
:1001C000F0E01F2FF02DC0E0D0E0F501EC0FFD1F97
:1001D000D601AC0FBD1F60817181828193812D9109
:1001E0003D914D915C910E9445109B01AC01C8016D
:1001F000B7010E9418107B018C012496CC30D105E8
:1002000021F7C801DF91CF911F910F91FF90EF90DF
:10021000DF90CF90BF90AF9008958F929F92AF9252
:10022000BF92CF92DF92EF92FF920F931F934C01F8
:100230006B015A01FB016481758186819781FA0106
:1002400020853185428553850E9445107B018C01B4
:10025000F6016085718582859385F501248135815C
:10026000468157810E9445109B01AC01C801B7012E
:100270000E94E70FF4016083718382839383F60108
:100280006085718582859385F50120813181428168
:1002900053810E9445107B018C01F60160817181C0
:1002A00082819381F50120853185428553850E94A5
:1002B00045109B01AC01C801B7010E94E70FF40192
:1002C0006483758386839783F6016081718182815F
:1002D0009381F50124813581468157810E94451023
:1002E0007B018C01F6016481758186819781F5011E
:1002F00020813181428153810E9445109B01AC01D4
:10030000C801B7010E94E70FF401608771878287F7
:1003100093871F910F91FF90EF90DF90CF90BF9048
:10032000AF909F908F9008958F929F92AF92BF92BF
:10033000CF92DF92EF92FF920F931F93CF93DF93B1
:100340004C015B0169017A01C0E0D0E084010C0F2F
:100350001D1FF501EC0FFD1F60817181828193816A
:10036000A70196010E944510F80160837183828382
:1003700093832496CC30D10549F7DF91CF911F911B
:100380000F91FF90EF90DF90CF90BF90AF909F9034
:100390008F900895AF92BF92CF92DF92EF92FF922B
:1003A0000F931F93CF93DF935C016B017A01C0E041
:1003B000D0E085010C0F1D1FF601EC0FFD1FD701CA
:1003C000AC0FBD1F60817181828193812D913D9120
:1003D0004D915C910E941810F801608371838283B3
:1003E00093832496CC30D10521F7DF91CF911F91D3
:1003F0000F91FF90EF90DF90CF90BF90AF90089556
:100400002F923F924F925F926F927F928F929F9224
:10041000AF92BF92CF92DF92EF92FF920F931F9312
:10042000CF93DF933B011A016C01AA24BB248CE01B
:10043000482E512C460E571E45C0F6016081718131
:1004400082819381288139814A815B810E94451094
:100450007B018C01F60164817581868197812C85F1
:100460003D854E855F850E9445109B01AC01C8010A
:10047000B7010E9418107B018C01F601608571851F
:1004800082859385288D398D4A8D5B8D0E9445101C
:100490009B01AC01C801B7010E941810F4016193DF
:1004A0007193819391934F012496C415D50529F634
:1004B0008CE090E0A80EB91EC80ED91E94E2A916D1
:1004C000B10429F0E30141018A0C9B1CB6CFDF91F6
:1004D000CF911F910F91FF90EF90DF90CF90BF9041
:1004E000AF909F908F907F906F905F904F903F90D4
:1004F0002F9008956F927F928F929F92AF92BF92AA
:10050000CF92DF92EF92FF920F931F93DF93CF93DF
:10051000CDB7DEB7A4970FB6F894DEBF0FBECDBF40
:1005200038E0832E31E0932E2CE0622E712C680C83
:10053000791CC401B3010E94CD0020E030E040E00E
:100540005FEB0E9445107B018C015E010894A11CA9
:10055000B11CC501B3019701A8010E9494019DE05F
:10056000C92ED12CCC0EDD1EC601B4019701A80105
:100570000E949401C501B501A4010E94CA01C601EF
:10058000B601A3010E94CA018E01075E1F4FC80178
:10059000B501A6010E940D01C501B5010E94CD0063
:1005A0009B01AC0160E070E080E490E40E94E70F02
:1005B00020E030E040E05FE30E9445109B01AC0189
:1005C000C401B5010E949401C601B6010E94CD008C
:1005D0009B01AC0160E070E080E490E40E94E70FD2
:1005E00020E030E040E05FE30E9445109B01AC0159
:1005F000C301B6010E949401C801B8010E94CD0058
:100600009B01AC0160E070E080E490E40E94E70FA1
:1006100020E030E040E05FE30E9445109B01AC0128
:1006200080E291E0B8010E949401A4960FB6F8947C
:10063000DEBF0FBECDBFCF91DF911F910F91FF9015
:10064000EF90DF90CF90BF90AF909F908F907F9072
:100650006F9008952F923F924F925F926F927F9288
:100660008F929F92AF92BF92CF92DF92EF92FF92C2
:100670000F931F93DF93CF9300D000D0CDB7DEB799
:100680006091910370919203882777FD8095982F50
:100690000E944B1229E732E240EA5AE30E944510D9
:1006A0006093BC027093BD028093BE029093BF0220
:1006B0006091890370918A03882777FD8095982F30
:1006C0000E944B1229E732E240EA5AE30E944510A9
:1006D0006093C0027093C1028093C2029093C302E0
:1006E0006091AF037091B003882777FD8095982FB4
:1006F0000E944B1229E732E240EA5AE30E94451079
:100700006093C4027093C5028093C6029093C7029F
:1007100060916D0370916E03882777FD8095982F07
:100720000E944B126093B0027093B1028093B202A8
:100730009093B30260918B0370918C03882777FDAF
:100740008095982F0E944B126093B4027093B5026B
:100750008093B6029093B7026091A9037091AA03A7
:10076000882777FD8095982F0E944B126093B802DE
:100770007093B9028093BA029093BB028CEE92E020
:100780006CEB72E040EE52E00E94CA0188EC92E00D
:100790006CEE72E044ED52E00E94CA010F2EF0E0D0
:1007A0002F2EF0E03F2EF0E04F2EF0E05F2EF02DE8
:1007B00020922C0130922D0140922E0150922F0157
:1007C000E0900401F09005010091060110910701ED
:1007D00057016801D7FAD094D7F8D0946090D0022E
:1007E0007090D1028090D2029090D302C601B501E0
:1007F000A40193010E944510609330017093310170
:1008000080933201909333018091CC029091CD027C
:10081000A091CE02B091CF0289839A83AB83BC832F
:10082000C801B70129813A814B815C810E94451042
:1008300060933401709335018093360190933701B2
:10084000C801B701A40193010E94451060933801CB
:100850007093390180933A0190933B0120923C01BF
:1008600030923D0140923E0150923F016090C8029B
:100870007090C9028090CA029090CB02C601B50167
:10088000A40193010E9445106093400170934101BF
:100890008093420190934301C601B50129813A81B9
:1008A0004B815C810E944510609344017093450127
:1008B0008093460190934701C801B701A4019301B9
:1008C0000E944510609348017093490180934A014A
:1008D00090934B0120924C0130924D0140924E0179
:1008E00050924F0188E091E06CE271E040E153E00A
:1008F0000E94000248E0E42E41E0F42E00E113E003
:10090000D7016D917D918D919C91F801208131816C
:10091000428153810E941810D7016D937D938D936E
:100920009C93139714966D917D918D919C9117973F
:10093000F80124813581468157810E941810D70122
:1009400014966D937D938D939C93179718966D9144
:100950007D918D919C911B97F80120853185428571
:1009600053850E941810D70118966D937D938D932F
:100970009C931B97ECE0F0E0EE0EFF1E045F1F4F10
:10098000FCE2EF16F1E0FF0609F0BACF0F900F90EE
:100990000F900F90CF91DF911F910F91FF90EF90EB
:1009A000DF90CF90BF90AF909F908F907F906F908F
:1009B0005F904F903F902F9008951F920F920FB627
:1009C0000F9211242F933F934F935F936F937F93D5
:1009D0008F939F93AF93BF93EF93FF9340918400C6
:1009E000509185008091610187FF31C081E0809343
:1009F00061012BB13091610181E090E002C0880F6C
:100A0000991F3A95E2F7282B2BB950935103409345
:100A100050038091590190915A01840F951F909332
:100A200089008093880080914C0390914D03A091A0
:100A30004E03B0914F034496A11DB11D80934C030A
:100A400090934D03A0934E03B0934F0350C08091F9
:100A50006101843094F5E0916101FF27E7FDF09595
:100A6000EE0FFF1FE75AFE4F80819181840F951F83
:100A700090938900809388004BB18091610121E0BF
:100A800030E0B90102C0660F771F8A95E2F7CB010B
:100A9000809584238BB94BB180916101992787FDA3
:100AA0009095019602C0220F331F8A95E2F7422BE0
:100AB0004BB9809161018F5F18C03BB120916101FA
:100AC00081E090E002C0880F991F2A95E2F7809597
:100AD00083238BB98091500390915103805E914B99
:100AE00090938900809388008FEF80936101FF913C
:100AF000EF91BF91AF919F918F917F916F915F9196
:100B00004F913F912F910F900FBE0F901F9018950E
:100B10001F920F920FB60F9211248F939F93AF9352
:100B2000BF938091AA029091AB02A091AC02B091C8
:100B3000AD020196A11DB11D8093AA029093AB0254
:100B4000A093AC02B093AD02BF91AF919F918F91F2
:100B50000F900FBE0F901F9018952F923F924F92BB
:100B60005F926F927F928F929F92AF92BF92CF923D
:100B7000DF92EF92FF920F931F93DF93CF93CDB746
:100B8000DEB760970FB6F894DEBF0FBECDBFE09022
:100B9000A503F090A6030091A7031091A803C80134
:100BA000B7010E9425166D877E878F87988BC801B5
:100BB000B7010E94D11769877A878B879C87E0905D
:100BC000A103F090A2030091A3031091A403C80114
:100BD000B7010E9425166D837E838F839887C80195
:100BE000B7010E94D11769837A838B839C83E0903D
:100BF00056012E2D332727FD309581ED9CE0289F4F
:100C0000B001299F700D389F700D112420918D0324
:100C100030918E03620F731F882777FD8095982F80
:100C20000E944B1220E038ED49EA55E40E943F1142
:100C30005B016C01FF24E7FCF0940F2D1F2DC80110
:100C4000B7010E944B1220E030E040E05FEB0E94D1
:100C500045109B01AC01C601B5010E9418103B0173
:100C60004C016093AB037093AC038093AD039093FE
:100C7000AE03E09057012E2D332727FD309588E8ED
:100C800099E0289FB001299F700D389F700D1124A5
:100C900020916B0330916C03620F731F882777FDDF
:100CA0008095982F0E944B1220E030E047EA55E4EF
:100CB0000E943F115B016C01FF24E7FCF0940F2DB3
:100CC0001F2DC801B7010E944B1220E030E040E028
:100CD0005FEB0E9445109B01AC01C601B5010E946B
:100CE00018101B012C016093750370937603809399
:100CF000770390937803E09058012E2D332727FD3A
:100D0000309581E392E1289FB001299F700D389FB3
:100D1000700D112420918F0330919003620F731F87
:100D2000882777FD8095982F0E944B1220E038E6A7
:100D30004EE955E40E943F115B016C01FF24E7FC82
:100D4000F0940F2D1F2DC801B7010E944B1220E017
:100D500030E040E05FEB0E9445109B01AC01C60112
:100D6000B5010E9418105B016C01609399037093A8
:100D70009A0380939B0390939C03C201B1012D853C
:100D80003E854F8558890E9445107B018C01C60124
:100D9000B50129853A854B855C850E9445109B01EC
:100DA000AC01C801B7010E94E70F7B018C0117FB62
:100DB000109517F91095C401B3012D813E814F8123
:100DC00058850E9445103B014C01C201B1012985A3
:100DD0003A854B855C850E94451029813A814B817B
:100DE0005C810E9445109B01AC01C401B3010E94CB
:100DF00018103B014C01C601B5012D853E854F857C
:100E000058890E94451029813A814B815C810E945A
:100E100045109B01AC01C401B3010E9418109B0155
:100E2000AC01C801B7010E94D2156093850370938D
:100E30008603809387039093880360960FB6F89497
:100E4000DEBF0FBECDBFCF91DF911F910F91FF90FD
:100E5000EF90DF90CF90BF90AF909F908F907F905A
:100E60006F905F904F903F902F9008956091200178
:100E70007091210180912201909123010E94AC1573
:100E800090586093A1037093A2038093A30390935F
:100E9000A403609124017091250180912601909115
:100EA0002701209128013091290140912A01509178
:100EB0002B010E94D2156093A5037093A603809323
:100EC000A7039093A803609114017091150180917C
:100ED000160190911701209108013091090140916C
:100EE0000A0150910B010E94D21560939D037093EB
:100EF0009E0380939F039093A00308956F927F9227
:100F00008F929F92AF92BF92CF92DF92EF92FF9219
:100F10000F931F932091B0023091B1024091B20221
:100F20005091B302E090B402F090B5020091B60285
:100F30001091B7026090B8027090B9028090BA0226
:100F40009090BB02CA01B9010E9445105B016C017F
:100F5000C801B701A80197010E9445109B01AC018F
:100F6000C601B5010E9418107B018C01C401B301B8
:100F7000A40193010E9445109B01AC01C801B70177
:100F80000E9418100E94DB1720E030E040E859E38F
:100F90000E9445109B01AC0160E070E080E89FE397
:100FA0000E94E70F0E94A912CB0177FF03C0909522
:100FB00081959F4F880F991F66277727681B790BAC
:100FC0006F5F7F4F882777FD8095982F0E944B1287
:100FD0007B018C0120E030E040E050E00E941B12D9
:100FE00088235CF40F2EF0E0EF2EF0E0FF2EF0E00F
:100FF0000F2FF0E01F2FF02D14C0C801B70120E023
:1010000030E040E85FE30E94EB11181654F40F2E15
:10101000F0E0EF2EF0E0FF2EF0E80F2FFFE31F2FA0
:10102000F02D88EF92E060EB72E040E251E00E9428
:101030000D01C801B7012AE037ED43EA5CE30E94E5
:1010400045109B01AC0184ED92E068EF72E00E94D4
:101050009401C801B7012CEA35EC47EA57E30E9436
:1010600045109B01AC0183E593E068EF72E00E94BC
:10107000940180EE92E0BC0143E553E00E94CA0176
:10108000E0908503F0908603009187031091880318
:10109000C801B7010E9425165B016C01C801B701A8
:1010A0000E94D117209108013091090140910A0155
:1010B00050910B010E9445107B018C01C601B501C6
:1010C00020911401309115014091160150911701A2
:1010D0000E9445109B01AC01C801B7010E94E70FB7
:1010E0009B01AC0184E093E060E271E00E94940116
:1010F0008FE593E064E073E02AE939E949E95FE3C9
:101100000E94940184ED92E0BC014FE553E00E94FF
:10111000CA0183E593E064E073E02CEA35EC47EA2A
:1011200057E30E94940180EE92E0BC0143E553E056
:101130000E94CA011F910F91FF90EF90DF90CF9016
:10114000BF90AF909F908F907F906F9008952F9257
:101150003F924F925F926F927F928F929F92AF9247
:10116000BF92CF92DF92EF92FF920F931F93DF9384
:10117000CF93CDB7DEB76E970FB6F894DEBF0FBE34
:10118000CDBF8091810082608093810080916F004B
:10119000826080936F008091590190915A019093E1
:1011A0008900809388008AB18F618AB9209161019A
:1011B00081E090E002C0880F991F2A95E2F78BB971
:1011C0007894509A589A88E99AE328EC30E0F9012B
:1011D0003197F1F70197D9F7589888E99AE328EC05
:1011E00030E0F9013197F1F70197D9F71092B90082
:1011F00082E08093B8008DE161E248E10E94960CA4
:101200008823C9F38DE160E247E50E94960C8823AC
:10121000C9F38DE164E244E60E94960C8823C9F389
:101220008DE165E240E20E94960C8823C9F38DE1CE
:1012300066E240E00E94960C8823C9F38BE669E3DE
:1012400040E00E94960C8823C9F38BE663E240E2FB
:101250000E94960C8823C9F38BE660E24FE00E945F
:10126000960C8823C9F380E49CE90197F1F71D8669
:101270008BE668E243E953E026E00E94F70C8823FE
:10128000B9F310919403009193033090960320904A
:10129000950320919803288B309197033F878DE128
:1012A00068E24FE653E026E00E94F70C8823B9F38A
:1012B00050907003442420916F0330E02429352995
:1012C000712E6624802F90E0862997299A8389833E
:1012D000932C8824822D90E0882999299C838B83E4
:1012E000B888AA244F85842F90E08A299B299E8361
:1012F0008D8338872F83D0907203CC248091710323
:1013000090E08C299D299A878987F0907403EE24B8
:101310008091730390E08E299F299C878B8704E33B
:1013200013E0BE016F5F7F4FF801DB012D913D910E
:10133000BD01442737FD4095542F80819181A281C2
:10134000B381820F931FA41FB51F81939193A19323
:10135000B193ACE42A2EA3E03A2E2E163F0629F7CD
:1013600080E49CE90197F1F7BD85BF5FBD87B0328E
:1013700009F07ECFF801608171818281938120E242
:1013800030E040E050E00E942415D8012D933D93B9
:101390004D935D938D012A163B0661F780915501AF
:1013A000992787FD9095982F88279295907FAA2757
:1013B00097FDA095BA2F20914803309149034091A1
:1013C0004A0350914B03281B390B4A0B5B0B2093AC
:1013D00048033093490340934A0350934B0314BC92
:1013E00085B5826085BD80916E00816080936E00BE
:1013F00078941E86ECEB8E2EE2E09E2E80914C03BC
:1014000090914D03A0914E03B0914F038D5F984092
:10141000A040B040E8F080914C0390914D03A09122
:101420004E03B0914F0388559B41A040B04080F4DB
:1014300090925A018092590190925C0180925B01D6
:1014400090925E0180925D019092600180925F01B6
:1014500080914C0390914D03A0914E03B0914F03A6
:1014600089599A43A040B04080F090925A018092EE
:10147000590190925C0180925B0190925E01809292
:101480005D019092600180925F0180914C03909188
:101490004D03A0914E03B0914F0389559B41A0404D
:1014A000B04008F4ABCF80914C0390914D03A091D4
:1014B0004E03B0914F0388599A43A040B04008F0C2
:1014C0009DCF8091AA029091AB02A091AC02B09105
:1014D000AD02982F8091AE02392F381B2091AF02B8
:1014E000230F2093AF029093AE028091AF028F340E
:1014F00008F484CF5E855F5F5E878A8B198AA9892D
:10150000BA89BD01882777FD8095982F0E944B12DC
:1015100020E030E04AE754E40E943F1120E030E050
:101520004AE754E40E943F1160930401709305015F
:1015300080930601909307011092AF028BE668E258
:1015400043E953E026E00E94F70C8823B9F3B091F9
:101550009403BC8B1B8A6091930370E0EB89FC8938
:101560006E2B7F2B70937A0360937903F09196032F
:10157000FE8B1D8AE0909503FF242D893E89E22A87
:10158000F32AF0927C03E0927B0370909803662428
:10159000A0909703BB24A628B728B0927E03A09200
:1015A0007D03882777FD8095982F20913403309113
:1015B00035034091360350913703621B730B840B44
:1015C000950B20915001332727FD3095432F532F42
:1015D0000E94F21470939203609391030027F7FC2A
:1015E0000095102F8091380390913903A0913A0310
:1015F000B0913B03E81AF90A0A0B1B0B2091510129
:10160000332727FD3095432F532FC801B7010E9480
:10161000F21470938A0360938903CC24B7FCC094BE
:10162000DC2C80913C0390913D03A0913E03B0914E
:101630003F03A81AB90ACA0ADB0A209152013327CC
:1016400027FD3095432F532FC601B5010E94F21498
:101650007093B0036093AF038DE168E24FE653E00F
:1016600026E00E94F70C8823B9F330917003388F7D
:101670001F8A60916F0370E04F89588D642B752B22
:101680007093800360937F03509172035A8F198E79
:10169000E0907103FF24898D9A8DE82AF92AF0924F
:1016A0008203E0928103509074034424A09073035A
:1016B000BB24A428B528B0928403A0928303882772
:1016C00077FD8095982F2091400330914103409100
:1016D000420350914303621B730B840B950B2091C3
:1016E0005301332727FD3095432F532F0E94F214C7
:1016F00070936E0360936D030027F7FC0095102F25
:101700008091440390914503A0914603B091470313
:10171000E81AF90A0A0B1B0B20915401332727FD05
:101720003095432F532FC801B7010E94F2147093D4
:101730008C0360938B03CC24B7FCC094DC2C809189
:10174000480390914903A0914A03B0914B03A81A12
:10175000B90ACA0ADB0A20915501332727FD3095C3
:10176000432F532FC601B5010E94F2147093AA03B0
:101770006093A9039E8596300CF469C08DE168E002
:101780004FE653E026E00E94F70C8823B9F3A091BE
:101790007003AC8F1B8E60916F0370E0EB8DFC8D3E
:1017A0006E2B7F2B7093B2036093B103F0917203A1
:1017B000FE8F1D8E4091710350E02D8D3E8D422B8A
:1017C000532B5093B4034093B303309074032224FB
:1017D0002091730330E0222933293093B6032093FC
:1017E000B50380915601992787FD9095DC01A69F4E
:1017F000C001A79F900DB69F900D112490938E036A
:1018000080938D0380915701992787FD9095FC0166
:10181000E49FC001E59F900DF49F900D11249093DB
:101820006C0380936B0380915801992787FD9095F5
:10183000AC01429FC001439F900D529F900D112417
:101840009093900380938F030E94AD051E860E94A3
:101850002A030E947A020E947E070E943607609146
:10186000A1037091A2038091A3039091A40321EEA0
:101870003EE245E652E40E9445107B018C0120E0E7
:1018800030E040E050E00E94EB11181614F4589A32
:1018900001C01BB8C801B70120E030E040E251E4CC
:1018A0000E94451020E030E048E454E40E94181003
:1018B0000E94A912CB0154E0613B750714F080EB44
:1018C00094E090935A018093590198CD8091BC0087
:1018D00087FFFCCF08958091B900887F0895809399
:1018E000BB0084E88093BC000895982F84EA80931D
:1018F000BC008091BC0087FFFCCF8091B900887F3D
:10190000883029F08091B900887F803139F4990FAF
:10191000962B9093BB0084E88093BC008091BC0020
:1019200087FFFCCF8091B900887F08950F931F93A4
:10193000162F042F60E00E94750C8831F9F4109383
:10194000BB0084E88093BC008091BC0087FFFCCF83
:101950008091B900887F883289F40093BB0084E8C5
:101960008093BC008091BC0087FFFCCF8091B900C0
:1019700090E0887F883219F491E001C090E0892FCF
:101980001F910F9108950F931F93082F162F60E05A
:101990000E94750C883131F51093BB0084E8809368
:1019A000BC008091BC0087FFFCCF8091B900887F8C
:1019B0008832C1F4802F61E00E94750C803491F46C
:1019C00084E88093BC008091BC0087FFFCCF8091AD
:1019D000B900887F883531F49091BB0084E880930A
:1019E000BC0001C090E0892F1F910F910895DF92F4
:1019F000EF92FF920F931F93082F162FF42EE52ED0
:101A0000D22E60E00E94750C883191F51068109319
:101A1000BB0084E88093BC008091BC0087FFFCCFB2
:101A20008091B900887F883219F5802F61E00E948B
:101A3000750C8034E9F48F2D9E2D9C01F90190E006
:101A400024EC0FC02093BC008091BC0087FFFCCF2A
:101A50008091B900887F803531F48091BB008193FB
:101A60009F5F9D1578F380E09D1519F481E001C01A
:101A700080E01F910F91FF90EF90DF90089587B164
:101A8000807F87B95F9A5E9881E08A95F1F721E0BF
:101A900032E05D9A822F8A95F1F786B18295807F38
:101AA000922F9A95F1F75D98932F9A95F1F75D9A99
:101AB000922F9A95F1F796B1922F9A95F1F75D983A
:101AC000932F9A95F1F787FDE4CF5F9887B18F60E8
:101AD00087B90895282F662311F45E9801C05E9A95
:101AE00081E08A95F1F75D9A88B1922F92959F7067
:101AF000807F982B98B992E0892F8A95F1F75D98AD
:101B0000892F8A95F1F75D9A88B12F70807F822B9B
:101B100088B9892F8A95F1F75D989A95F1F70E9417
:101B20003F0D08951F93CF93DF93182F88EE93E016
:101B300028EC30E0F9013197F1F70197D9F788B136
:101B4000807F88B95D985F985E9887B18F6087B90C
:101B5000559A569A579A81E08A95F1F75D9A419A7B
:101B600082E0982F9A95F1F75D988A95F1F788E5CC
:101B700092E00197F1F788E260E00E946A0D812F00
:101B8000886060E00E946A0D812F8C6060E00E9496
:101B90006A0D80E460E00E946A0DC2E6D1E089919E
:101BA00061E00E946A0D81E0C23AD807C1F781E086
:101BB00060E00E946A0DDF91CF911F910895CF934D
:101BC000DF93EC0110C0853251F421968881805357
:101BD000883028F085E261E00E946A0D888161E02A
:101BE0000E946A0D21968881882369F7DF91CF9141
:101BF00008951F93CF93DF93EC01FC01849114C0EF
:101C0000853261F42196FE011491812F8053883032
:101C100028F085E261E00E946A0D812F61E00E9458
:101C20006A0D2196FE018491882351F7DF91CF91AF
:101C30001F910895EF92FF920F931F93DF93CF931D
:101C400000D000D00F92CDB7DEB78C01F62E97FFF3
:101C500008C08DE261E00E946A0D109501951F4F4A
:101C600004C080E261E00E946A0DFE01319685E0C9
:101C7000DF011D928A95E9F7FE0135960DC0C80176
:101C80006AE070E00E9411158083C8016AE070E08C
:101C90000E9411158B0131970115110581F7BFEFD6
:101CA000FB1681F420E030E0AE014F5F5F4F02C0D1
:101CB0002F5F3F4FFA01E20FF31F80818823C1F3AA
:101CC000890108C08F2D992787FD909505E010E0C8
:101CD000081B190B7E010894E11CF11CE00EF11E9B
:101CE00009C0F70181917F01805D61E00E946A0D6A
:101CF0000F5F1F4F05301105A4F30F900F900F9049
:101D00000F900F90CF91DF911F910F91FF90EF9067
:101D10000895843178F4623031F0633031F061300D
:101D200029F4806403C08C5E01C08C5A806860E036
:101D30000E946A0D0895A0E0B0E0E1EAFEE00C9494
:101D40007515DC012B01FA019C91923008F439C120
:101D5000EB018881823008F433C1943069F4843017
:101D600009F02FC111969C9111978981981709F458
:101D700028C1A2EAB1E025C1843009F421C1823032
:101D8000A9F4923009F01DC19A01AD0188E0EA0181
:101D90000990AE01E90109929E018150C1F7E2016B
:101DA000898111969C918923818308C1923009F41D
:101DB00007C112962D903C901397EB018A819B816D
:101DC0001496AD90BD90CD90DC901797EC80FD807F
:101DD0000E811F819101281B390BB90137FF04C007
:101DE00066277727621B730B603271050CF061C0A8
:101DF000121613066CF537014801062E04C096949E
:101E00008794779467940A94D2F721E030E040E019
:101E100050E004C0220F331F441F551F6A95D2F7AC
:101E200021503040404050402E213F21402351233B
:101E3000211531054105510521F021E030E040E058
:101E400050E079018A01E628F728082919293CC0C1
:101E5000232BD1F1260E371E35014601062E04C074
:101E600096948794779467940A94D2F721E030E0AF
:101E700040E050E004C0220F331F441F551F6A95F5
:101E8000D2F721503040404050402A213B214C2184
:101E90005D21211531054105510521F021E030E09A
:101EA00040E050E059016A01A628B728C828D9287F
:101EB0000BC0821593052CF01C01AA24BB246501DC
:101EC00003C0EE24FF24870111969C91D201119644
:101ED0008C91981709F445C0992339F0A80197010E
:101EE0002A193B094C095D0906C0A60195012E1966
:101EF0003F09400B510B57FD08C0118233822282EB
:101F000024833583468357831DC081E081833382D8
:101F1000228288279927DC01821B930BA40BB50B27
:101F200084839583A683B7830DC0220F331F441F7C
:101F3000551F24833583468357838281938101977C
:101F4000938382832481358146815781DA01C901D7
:101F50000197A109B1098F5F9F4FAF4FBF4328F38E
:101F60000BC0918333822282EA0CFB1C0C1D1D1DC9
:101F7000E482F5820683178383E0808324813581A0
:101F80004681578157FF1AC0C901AA2797FDA0951E
:101F9000BA2F81709070A070B070569547953795A4
:101FA0002795822B932BA42BB52B84839583A68313
:101FB000B78382819381019693838283DF0101C07D
:101FC000D201CD01CDB7DEB7E2E10C949115A0E2CC
:101FD000B0E0EDEEFFE00C94811569837A838B838A
:101FE0009C832D833E834F835887E9E0EE2EF12CAE
:101FF000EC0EFD1ECE010196B7010E9421148E0148
:102000000F5E1F4FCE010596B8010E9421148A89E8
:1020100091E089278A8BC701B801AE01475E5F4F07
:102020000E949B0E0E944C13A096E6E00C949D1516
:10203000A0E2B0E0EEE1F0E10C94811569837A83CF
:102040008B839C832D833E834F835887F9E0EF2E4B
:10205000F12CEC0EFD1ECE010196B7010E94211459
:102060008E010F5E1F4FCE010596B8010E9421140C
:10207000C701B801AE01475E5F4F0E949B0E0E94F0
:102080004C13A096E6E00C949D15A0E2B0E0EBE4C2
:10209000F0E10C94751569837A838B839C832D837F
:1020A0003E834F835887CE010196BE01675F7F4F05
:1020B0000E942114CE010596BE016F5E7F4F0E94E3
:1020C00021149985923088F089898230C8F0943043
:1020D00019F4823051F404C0843029F4923081F430
:1020E00082EA91E0C6C0923049F420E09A858A895C
:1020F000981321E02A87CE010996BBC0823049F4AB
:1021000020E09A858A89981321E02A8BCE01419696
:10211000B0C02D843E844F8458886D887E888F8817
:10212000988CEE24FF248701AA24BB24650140E09B
:1021300050E060E070E0E0E0F0E0C101817090709C
:10214000892BE9F0E60CF71C081D191D9A01AB015B
:102150002A0D3B1D4C1D5D1D80E090E0A0E0B0E02D
:10216000E614F7040805190520F481E090E0A0E0EA
:10217000B0E0BA01A901480F591F6A1F7B1FAA0CC2
:10218000BB1CCC1CDD1C97FE08C081E090E0A0E0E9
:10219000B0E0A82AB92ACA2ADB2A3196E032F10532
:1021A00049F0660C771C881C991C56944794379408
:1021B0002794C3CFFA85EA892B893C898B859C8536
:1021C000280F391F2E5F3F4F17C0CA0181709070D2
:1021D000892B61F016950795F794E79480E090E0DD
:1021E000A0E0B0E8E82AF92A0A2B1B2B7695679520
:1021F000579547952F5F3F4F77FDE7CF0CC0440FB2
:10220000551F661F771F17FD4160EE0CFF1C001F56
:10221000111F21503040403090E0590790E069078D
:1022200090E4790760F32B8F3C8FDB01CA018F7735
:102230009070A070B07080349105A105B10561F473
:1022400047FD0AC0E114F1040105110529F0405CC5
:102250005F4F6F4F7F4F40781A8EFE1711F081E06D
:102260008A8F4D8F5E8F6F8F78A383E0898FCE0129
:1022700049960E944C13A096E2E10C949115A8E1B6
:10228000B0E0E5E4F1E10C947D1569837A838B83FA
:102290009C832D833E834F835887B9E0EB2EF12C2E
:1022A000EC0EFD1ECE010196B7010E9421148E0195
:1022B0000F5E1F4FCE010596B8010E94211429859B
:1022C000223008F47EC03989323010F4B8017CC065
:1022D0008A859A8989278A87243011F0223031F43F
:1022E000231709F06EC062EA71E06EC0343039F431
:1022F0001D861E861F86188A1C861B8604C03230E7
:1023000021F484E08987B7015FC02B853C858B89E8
:102310009C89281B390B3C872B87ED84FE840F8515
:102320001889AD88BE88CF88D88CEA14FB040C05C8
:102330001D0540F4EE0CFF1C001F111F2150304002
:102340003C872B8720E030E040E050E080E090E0E8
:10235000A0E0B0E460E070E0EA14FB040C051D05A9
:1023600040F0282B392B4A2B5B2BEA18FB080C0971
:102370001D09B695A79597958795EE0CFF1C001F34
:10238000111F6F5F7F4F6F31710531F7DA01C9019E
:102390008F779070A070B07080349105A105B10561
:1023A00061F427FD0AC0E114F1040105110529F0CB
:1023B000205C3F4F4F4F5F4F20782D873E874F87E0
:1023C000588BBE01675F7F4FCB010E944C1368960C
:1023D000EAE00C949915A8E1B0E0E1EFF1E10C948A
:1023E000811569837A838B839C832D833E834F83FE
:1023F000588789E0E82EF12CEC0EFD1ECE010196E7
:10240000B7010E9421148E010F5E1F4FCE01059669
:10241000B8010E9421148985823040F08989823078
:1024200028F0C701B8010E94991401C08FEF689687
:10243000E6E00C949D15A8E1B0E0E1E2F2E10C9435
:10244000811569837A838B839C832D833E834F839D
:10245000588789E0E82EF12CEC0EFD1ECE01019686
:10246000B7010E9421148E010F5E1F4FCE01059609
:10247000B8010E9421148985823040F08989823018
:1024800028F0C701B8010E94991401C081E0689644
:10249000E6E00C949D15A8E0B0E0E1E5F2E10C94D3
:1024A0007E159B01AC0183E08983DA01C90188278D
:1024B000B7FD83959927AA27BB27B82E211531058B
:1024C0004105510519F482E089833AC08823A9F0B7
:1024D000203080E0380780E0480780E8580729F47A
:1024E00060E070E080E09FEC30C0EE24FF248701C4
:1024F000E21AF30A040B150B02C079018A018EE17E
:10250000C82ED12CDC82CB82ED82FE820F8318870D
:10251000C801B7010E94FD1201971816190684F42C
:10252000082E04C0EE0CFF1C001F111F0A94D2F7E6
:10253000ED82FE820F831887C81AD90ADC82CB820B
:10254000BA82CE0101960E944C132896E9E00C94C1
:102550009A15ACE0B0E0EFEAF2E10C9485156983DE
:102560007A838B839C83CE010196BE016B5F7F4F84
:102570000E9421148D81823061F1823050F18430CB
:1025800021F48E81882351F12EC02F81388537FDAB
:1025900020C06E812F3131051CF06623F9F023C075
:1025A0008EE190E0821B930B29853A854B855C85F3
:1025B00004C056954795379527958A95D2F7662397
:1025C000B1F050954095309521953F4F4F4F5F4F5B
:1025D0000EC020E030E040E050E009C02FEF3FEFB8
:1025E0004FEF5FE704C020E030E040E050E8B90181
:1025F000CA012C96E2E00C94A115EF92FF920F9382
:102600001F937B018C0180E0E81680E0F80681E0F2
:10261000080780E0180788F48FEFE816F104010539
:10262000110531F028F088E090E0A0E0B0E017C09C
:1026300080E090E0A0E0B0E012C080E0E81680E02A
:10264000F80680E0080781E0180728F088E190E0AC
:10265000A0E0B0E004C080E190E0A0E0B0E020E2C3
:1026600030E040E050E0281B390B4A0B5B0B04C004
:1026700016950795F794E7948A95D2F7F701E655F2
:10268000FE4F8081281B310941095109C9011F9161
:102690000F91FF90EF900895DF92EF92FF920F93CA
:1026A0001F93FC01E480F58006811781D180808131
:1026B000823048F480E090E0A0E1B0E0E82AF92A16
:1026C0000A2B1B2BA5C0843009F49FC0823021F453
:1026D000EE24FF24870105C0E114F1040105110572
:1026E00019F4E0E0F0E096C0628173819FEF6238F8
:1026F00079070CF05BC022E83FEF261B370B2A312D
:1027000031052CF020E030E040E050E02AC0B80174
:10271000A701022E04C076956795579547950A94B0
:10272000D2F781E090E0A0E0B0E004C0880F991FEC
:10273000AA1FBB1F2A95D2F70197A109B1098E21C3
:102740009F21A023B1230097A105B10521F081E0CD
:1027500090E0A0E0B0E09A01AB01282B392B4A2B86
:102760005B2BDA01C9018F779070A070B070803454
:102770009105A105B10539F427FF09C0205C3F4F41
:102780004F4F5F4F04C0215C3F4F4F4F5F4FE0E022
:10279000F0E02030A0E03A07A0E04A07A0E45A07A2
:1027A00010F0E1E0F0E079018A0127C0603871059E
:1027B00064F5FB01E158FF4FD801C7018F77907096
:1027C000A070B07080349105A105B10539F4E7FE21
:1027D0000DC080E490E0A0E0B0E004C08FE390E0A2
:1027E000A0E0B0E0E80EF91E0A1F1B1F17FF05C08E
:1027F00016950795F794E794319687E01695079517
:10280000F794E7948A95D1F705C0EE24FF24870159
:10281000EFEFF0E06E2F679566276795902F9F7713
:10282000D794DD24D7948E2F8695492F462B582F89
:102830005D29B701CA011F910F91FF90EF90DF90C2
:102840000895FC01DB01408151812281622F6F7765
:1028500070E0221F2227221F9381892F880F822B4D
:10286000282F30E0991F9927991F11969C93119753
:1028700021153105A9F5411551056105710511F4C1
:1028800082E037C082E89FEF13969C938E93129755
:102890009A01AB0167E0220F331F441F551F6A9551
:1028A000D1F783E08C930DC0220F331F441F551FB7
:1028B00012968D919C911397019713969C938E93EA
:1028C0001297203080E0380780E0480780E45807FE
:1028D00058F314962D933D934D935C931797089559
:1028E0002F3F310579F4411551056105710519F442
:1028F00084E08C93089564FF03C081E08C9312C040
:102900001C9210C02F57304013963C932E93129771
:1029100083E08C9387E0440F551F661F771F8A95CD
:10292000D1F7706414964D935D936D937C931797D4
:1029300008951F93DC01FB019C91923008F447C07D
:102940008081823008F443C0943051F411961C9178
:10295000843099F58181682F70E0611B71093FC057
:10296000843021F0923031F48230B9F181818823B2
:1029700089F12DC011961C9111978230F1F081815F
:102980001817D9F412962D913C9113978281938157
:102990008217930794F028173907BCF014968D918D
:1029A0009D910D90BC91A02D248135814681578148
:1029B000281739074A075B0718F4112341F00AC0AA
:1029C00082179307A407B50740F4112319F061E0BB
:1029D00070E005C06FEF7FEF02C060E070E0CB01F8
:1029E0001F910895629FD001739FF001829FE00DB7
:1029F000F11D649FE00DF11D929FF00D839FF00D7E
:102A0000749FF00D659FF00D9927729FB00DE11D29
:102A1000F91F639FB00DE11DF91FBD01CF01112406
:102A2000089597FB092E07260AD077FD04D027D0FA
:102A300006D000201AF4709561957F4F0895F6F73F
:102A4000909581959F4F089597FB092E05260ED0EE
:102A500057FD04D028D00AD0001C38F4509540957A
:102A6000309521953F4F4F4F5F4F0895F6F7909562
:102A70008095709561957F4F8F4F9F4F0895AA1B4A
:102A8000BB1B51E107C0AA1FBB1FA617B70710F059
:102A9000A61BB70B881F991F5A95A9F7809590958B
:102AA000BC01CD010895A1E21A2EAA1BBB1BFD019A
:102AB0000DC0AA1FBB1FEE1FFF1FA217B307E4071D
:102AC000F50720F0A21BB30BE40BF50B661F771F75
:102AD000881F991F1A9469F7609570958095909555
:102AE0009B01AC01BD01CF0108952F923F924F92FF
:102AF0005F926F927F928F929F92AF92BF92CF928E
:102B0000DF92EF92FF920F931F93CF93DF93CDB796
:102B1000DEB7CA1BDB0B0FB6F894DEBF0FBECDBF0E
:102B200009942A88398848885F846E847D848C84DF
:102B30009B84AA84B984C884DF80EE80FD800C81E8
:102B40001B81AA81B981CE0FD11D0FB6F894DEBFCB
:102B50000FBECDBFED0108959F939F77EEE38937B8
:102B60009E0720F4E8E6F0E022D109C0D7D09058C3
:102B7000A2EA2AED3FE049EC5FE36BD25FD10F9010
:102B800007FC9058089524D158F080E891E009F4AA
:102B90009EEF25D128F040E851E059F45EEF09C0DE
:102BA000DEC090C1E92FE0786BD168F3092E052AC9
:102BB000C1F3261737074807590738F00E2E07F8D4
:102BC000E02569F0E025E0640AC0EF6307F80094AF
:102BD00007FADB01B9019D01DC01CA01AD01EF93E8
:102BE00044D02CD10AD05F91552331F02BED3FE03A
:102BF00049E450FD49EC1CCA0895DF93DD27B92F45
:102C0000BF7740E85FE31616170648075B0710F426
:102C1000D92F5FD19F938F937F936F930AD2ECE765
:102C2000F0E0A0D00BD12F913F914F915F9162D1F5
:102C3000DD2349F09058A2EA2AED3FE049EC5FE33A
:102C4000D0785D2706D2DF91F9C0D1D0E39507C1D6
:102C5000C6D040F0BDD030F021F45F3F19F079C00C
:102C6000511131C17CC00CD198F39923C9F355237C
:102C7000B1F3951B550BBB27AA276217730784076F
:102C800038F09F5F5F4F220F331F441FAA1FA9F325
:102C900033D00E2E3AF0E0E830D091505040E69517
:102CA000001CCAF729D0FE2F27D0660F771F881F78
:102CB000BB1F261737074807AB07B0E809F0BB0B67
:102CC000802DBF01FF2793585F4F2AF09E3F51058B
:102CD00068F03FC0F8C05F3FECF3983EDCF38695A8
:102CE00077956795B795F7959F5FC9F7880F911D01
:102CF0009695879597F90895E1E0660F771F881FED
:102D0000BB1F621773078407BA0720F0621B730B9F
:102D1000840BBA0BEE1F88F7E0950895DF93CF93ED
:102D20001F930F938B01EC01E9EAF0E01BD086D0F2
:102D30009801AE018B01EC0160E070E080E89FE358
:102D400046D939D19801AE010F911F91CF91DF91F2
:102D5000D1C097F99F6780E870E060E008959FEF29
:102D600080EC0895DF93CF931F930F93FF92EF9220
:102D7000DF927B018C01689405C0DA2EEF01BAD096
:102D8000FE01E894A5912591359145915591AEF3B9
:102D9000EF015FD1FE019701A801DA9479F7DF9086
:102DA000EF90FF900F911F91CF91DF9108959F9326
:102DB0008F937F936F93FF93EF939B01AC0165D942
:102DC000EF91FF91CFDF2F913F914F915F915DC9BF
:102DD00000240A94161617061806090608950024FA
:102DE0000A9412161306140605060895B8CF50D09B
:102DF000E8F3E894E0E0BB279F57F0F02AED3FE0CE
:102E000049EC06C0EE0FBB0F661F771F881F28F026
:102E1000B23A62077307840728F0B25A620B730B49
:102E2000840BE3959A9572F7803830F49A95BB0F2E
:102E3000661F771F881FD2F7904860C1092E039440
:102E4000000C11F4882352F0BB0F40F4BF2B11F497
:102E500060FF04C06F5F7F4F8F4F9F4F0895EF93C8
:102E6000E0FF06C0A2EA2AED3FE049EC5FEBF1D0BB
:102E7000E5DF0F90039401FC9058E1EDF0E097CF6F
:102E800057FD9058440F551F59F05F3F71F047951B
:102E9000880F97FB991F61F09F3F79F08795089500
:102EA000121613061406551FF2CF4695F1DF08C01F
:102EB000161617061806991FF1CF8695710561053C
:102EC00008940895E894BB2766277727CB0197F9E4
:102ED00008959B01AC0160E070E080E89FE3CFC9FA
:102EE00077DF28F07CDF18F0952309F032CF37CF59
:102EF0001124E9CFC5DFA0F3959FD1F3950F50E0E2
:102F0000551F629FF001729FBB27F00DB11D639F9B
:102F1000AA27F00DB11DAA1F649F6627B00DA11D41
:102F2000661F829F2227B00DA11D621F739FB00DE7
:102F3000A11D621F839FA00D611D221F749F332757
:102F4000A00D611D231F849F600D211D822F762FF0
:102F50006A2F11249F5750408AF0E1F088234AF0ED
:102F6000EE0FFF1FBB1F661F771F881F9150504039
:102F7000A9F79E3F510570F0ECCEA5CF5F3FECF373
:102F8000983EDCF3869577956795B795F795E79525
:102F90009F5FC1F7FE2B880F911D9695879597F936
:102FA00008959F9324DF0F9007FCEE5F58CF11F434
:102FB0000EF4D5CEA1C06CDFD0F39923D9F3CEF3B4
:102FC0009F57550B87FFA6D00024A0E640EA90014A
:102FD00080585695979528F4805C660F771F881F58
:102FE00020F026173707480730F4621B730B840B59
:102FF000202931294A2BA69517940794202531259D
:103000004A2758F7660F771F881F20F026173707C3
:10301000480730F4620B730B840B200D311D411DEA
:10302000A09581F7B901842F9158880F96958795BF
:1030300008959B01AC0129C8CBDE30F0D0DE20F032
:1030400031F49F3F11F41EF48ACE0EF4E095E7FBB5
:1030500080CEE92F15DF80F3BA1762077307840764
:10306000950718F071F49EF52DCF0EF4E0950B2E18
:10307000BA2FA02D0B01B90190010C01CA01A001CA
:103080001124FF27591B99F0593F50F4503E68F125
:103090001A16F040A22F232F342F4427585FF3CF66
:1030A000469537952795A795F0405395C9F77EF437
:1030B0001F16BA0B620B730B840BBAF09150A1F080
:1030C000FF0FBB1F661F771F881FC2F70EC0BA0F06
:1030D000621F731F841F48F4879577956795B7958E
:1030E000F7959E3F08F0B3CF9395880F08F0992786
:1030F000EE0F9795879508959F3F31F0915020F4FA
:10310000879577956795B795880F911D96958795C3
:1031100097F9089591505040660F771F881FD2F796
:063120000895F894FFCFB2
:103126001D6B00100AD7A33C0000803F0000000082
:1031360000000000000000000000803F00000000CA
:1031460000000000000000000000803F00000000BA
:103156000000803F0000004000004040000080402A
:103166000000A0400000C0400000E0400000004118
:10317600010101FFFFFF010101FC08FC08FC08FC3E
:1031860008010000040E0400000000040E1F0E04D7
:103196000000040404041F0E04000A15110A0400AA
:1031A60000000A1F1F0E040000000C12120C000083
:1031B6000000040E1F0404040400010214080000A9
:1031C60000000000000000000000000102020303EE
:1031D60003030404040404040404050505050505A5
:1031E6000505050505050505050506060606060683
:1031F6000606060606060606060606060606060669
:103206000606060606060606060607070707070752
:103216000707070707070707070707070707070738
:103226000707070707070707070707070707070728
:103236000707070707070707070707070707070718
:103246000707070707070707070708080808080802
:1032560008080808080808080808080808080808E8
:1032660008080808080808080808080808080808D8
:1032760008080808080808080808080808080808C8
:1032860008080808080808080808080808080808B8
:1032960008080808080808080808080808080808A8
:1032A6000808080808080808080808080808080898
:1032B6000808080808080808080808080808080888
:0A32C60008080808080808080808AE
:00000001FF
