:100000000C9434000C9446000C9446000C9446006A
:100010000C9446000C9446000C9446000C94460048
:100020000C9446000C9446000C9446000C94460038
:100030000C9446000C9446000C9446000C94460028
:100040000C9446000C9446000C9446000C94460018
:100050000C9446000C9446000C9446000C94460008
:100060000C9446000C94460011241FBECFEFD8E03C
:10007000DEBFCDBF11E0A0E0B1E001C01D92A6300F
:10008000B107E1F70E9448000C9490010C94000025
:100090009F92AF92BF92CF92DF92EF92FF920F9317
:1000A0001F93DF93CF9300D000D000D0CDB7DEB741
:1000B000509A589A88E99AE328EC30E0F901319790
:1000C000F1F70197D9F7589888E99AE328EC30E0DE
:1000D000F9013197F1F70197D9F71092B90082E051
:1000E0008093B8008DE160E247E80E94E700882332
:1000F000C9F38DE161E248E10E94E7008823C9F37A
:100100005E010894A11CB11C992493948DE168E2CE
:10011000A50126E00E9448018130F1F4DA80CC2468
:10012000898190E08C299D299093010180930001A1
:10013000FC80EE248B8190E08E299F29909303010F
:10014000809302011E8100E08D8190E0802B912B35
:100150009093050180930401809102019091030125
:100160001816190614F49BB8D1CF1BB8CFCF8091C5
:10017000BC0087FFFCCF08958091B900887F089567
:100180008093BB0084E88093BC000895982F84EA94
:100190008093BC008091BC0087FFFCCF8091B900A8
:1001A000887F883029F08091B900887F803139F4C8
:1001B000990F962B9093BB0084E88093BC008091AC
:1001C000BC0087FFFCCF8091B900887F08950F9312
:1001D0001F93162F042F60E00E94C6008831F9F4A7
:1001E0001093BB0084E88093BC008091BC0087FF23
:1001F000FCCF8091B900887F883289F40093BB00DE
:1002000084E88093BC008091BC0087FFFCCF809184
:10021000B90090E0887F883219F491E001C090E045
:10022000892F1F910F9108950F931F93082F162F59
:1002300060E00E94C600883131F51093BB0084E86D
:100240008093BC008091BC0087FFFCCF8091B900F7
:10025000887F8832C1F4802F61E00E94C60080341C
:1002600091F484E88093BC008091BC0087FFFCCFB0
:100270008091B900887F883531F49091BB0084E883
:100280008093BC0001C090E0892F1F910F910895C9
:10029000DF92EF92FF920F931F93082F162FF42EE9
:1002A000E52ED22E60E00E94C600883191F51068DC
:1002B0001093BB0084E88093BC008091BC0087FF52
:1002C000FCCF8091B900887F883219F5802F61E0DA
:1002D0000E94C6008034E9F48F2D9E2D9C01F90107
:1002E00090E024EC0FC02093BC008091BC0087FFFD
:1002F000FCCF8091B900887F803531F48091BB00BC
:1003000081939F5F9D1578F380E09D1519F481E03E
:1003100001C080E01F910F91FF90EF90DF90089552
:04032000F894FFCF7F
:00000001FF
