:100000000C9434000C9446000C9446000C9446006A
:100010000C9446000C9446000C9446000C94460048
:100020000C9446000C9446000C9446000C94460038
:100030000C9446000C9446000C9446000C94460028
:100040000C9446000C9446000C9446000C94460018
:100050000C9446000C9446000C9446000C94460008
:100060000C9446000C94460011241FBECFEFD8E03C
:10007000DEBFCDBF11E0A0E0B1E001C01D92AC3009
:10008000B107E1F70E943F010C9479010C94000044
:1000900084EA8093BC0008958091BC00881F882763
:1000A000881F08958091BC0087FFFCCF0895809140
:1000B000B900887F0895880F862B8093BB0084E861
:1000C0008093BC0008958093BB0084E88093BC00BB
:1000D00008958091BB0094E89093BC0008958091AE
:1000E000BB0094EC9093BC000895982F84EA809311
:1000F000BC008091BC0087FFFCCF8091B900887F55
:10010000883029F08091B900887F803139F4990FC7
:10011000962B9093BB0084E88093BC008091BC0038
:1001200087FFFCCF8091B900887F08950F931F93BC
:10013000162F042F60E00E9475008831F9F41093A7
:10014000BB0084E88093BC008091BC0087FFFCCF9B
:100150008091B900887F883289F40093BB0084E8DD
:100160008093BC008091BC0087FFFCCF8091B900D8
:1001700090E0887F883219F491E001C090E0892FE7
:100180001F910F9108950F931F93082F162F60E072
:100190000E947500883131F51093BB0084E880938C
:1001A000BC008091BC0087FFFCCF8091B900887FA4
:1001B0008832C1F4802F61E00E947500803491F490
:1001C00084E88093BC008091BC0087FFFCCF8091C5
:1001D000B900887F883531F49091BB0084E8809322
:1001E000BC0001C090E0892F1F910F910895DF920C
:1001F000EF92FF920F931F93082F162FF42EE52EE8
:10020000D22E60E00E947500883191F5106810933D
:10021000BB0084E88093BC008091BC0087FFFCCFCA
:100220008091B900887F883219F5802F61E00E94A3
:1002300075008034E9F48F2D9E2D9C01F90190E02A
:1002400024EC0FC02093BC008091BC0087FFFCCF42
:100250008091B900887F803531F48091BB00819313
:100260009F5F9D1578F380E09D1519F481E001C032
:1002700080E01F910F91FF90EF90DF900895DF9342
:10028000CF9300D000D000D0CDB7DEB7509A589AA7
:1002900088E99AE328EC30E0F9013197F1F701970A
:1002A000D9F7589888E99AE328EC30E0F9013197BA
:1002B000F1F70197D9F71092B90082E08093B80066
:1002C0008DE160E2AE014F5F5F4F26E00E94F700D4
:1002D000813021F48981863009F4589A80E090E0D9
:1002E00026960FB6F894DEBF0FBECDBFCF91DF913B
:0602F0000895F894FFCF11
:00000001FF
