:100000000C9434000C9446000C9446000C9446006A
:100010000C9446000C9446000C9446000C94460048
:100020000C9446000C9446000C9446000C94460038
:100030000C9446000C9446000C9446000C94460028
:100040000C9446000C9446000C9446000C94460018
:100050000C9446000C9446000C9446000C94460008
:100060000C9446000C94460011241FBECFEFD8E03C
:10007000DEBFCDBF11E0A0E0B1E001C01D92AC3009
:10008000B107E1F70E9433010C9454010C94000075
:1000900084EA8093BC0008958091BC00881F882763
:1000A000881F08958091BC0087FFFCCF0895809140
:1000B000B900887F0895880F862B8093BB0084E861
:1000C0008093BC0008958093BB0084E88093BC00BB
:1000D00008958091BB0094E89093BC0008958091AE
:1000E000BB0094EC9093BC000895982F84EA809311
:1000F000BC008091BC0087FFFCCF8091B900887F55
:10010000883029F08091B900887F803139F4990FC7
:10011000962B9093BB0084E88093BC008091BC0038
:1001200087FFFCCF8091B900887F08950F931F93BC
:10013000162F042F60E00E9475008831F9F41093A7
:10014000BB0084E88093BC008091BC0087FFFCCF9B
:100150008091B900887F883289F40093BB0084E8DD
:100160008093BC008091BC0087FFFCCF8091B900D8
:1001700090E0887F883219F491E001C090E0892FE7
:100180001F910F9108950F931F93082F162F60E072
:100190000E947500883131F51093BB0084E880938C
:1001A000BC008091BC0087FFFCCF8091B900887FA4
:1001B0008832C1F4802F61E00E947500803491F490
:1001C00084E88093BC008091BC0087FFFCCF8091C5
:1001D000B900887F883531F49091BB0084E8809322
:1001E000BC0001C090E0892F1F910F9108950F93DB
:1001F0001F93082F162F60E00E947500883171F55B
:1002000010681093BB0084E88093BC008091BC0010
:1002100087FFFCCF8091B900887F8832F9F4802F66
:1002200061E00E9475008034C9F420E090E044EC65
:1002300034E81BB84093BC008091BC0087FFFCCF22
:100240008091B900887F803551F42091BB003093B4
:10025000BC00589A9F5F933061F701C020E0822F65
:100260001F910F910895509A589A88E99AE328ECC3
:1002700030E0F9013197F1F70197D9F7589888E9FB
:100280009AE328EC30E0F9013197F1F70197D9F7BB
:100290001092B90082E08093B8008DE168E20E947C
:0C02A000F70080E090E00895F894FFCF94
:00000001FF
