:100000000C943C000C9451000C9451000C94510041
:100010000C9451000C9451000C9451000C9451001C
:100020000C9451000C9451000C9451000C9451000C
:100030000C9451000C9451000C9451000C945100FC
:100040000C9451000C9451000C9451000C945100EC
:100050000C9451000C9451000C9451000C945100DC
:100060000C9451000C9451004C4F554C4F5520446A
:1000700027414D4F5552000011241FBECFEFD8E04D
:10008000DEBFCDBF11E0A0E0B1E0E0ECF3E002C0E4
:1000900005900D92A034B107D9F70E9453000C943B
:1000A000DE010C94000080E00E94AE0088E690E043
:1000B0000E941501FFCF87B1807F87B95F9A5E9854
:1000C00081E08A95F1F721E032E05D9A822F8A95EE
:1000D000F1F786B18295807F922F9A95F1F75D981E
:1000E000932F9A95F1F75D9A922F9A95F1F796B121
:1000F000922F9A95F1F75D98932F9A95F1F787FDD6
:10010000E4CF5F9887B18F6087B90895282F662361
:1001100011F45E9801C05E9A81E08A95F1F75D9ACC
:1001200088B1922F92959F70807F982B98B992E01A
:10013000892F8A95F1F75D98892F8A95F1F75D9A55
:1001400088B12F70807F822B88B9892F8A95F1F72B
:100150005D989A95F1F70E945B0008951F93CF93E5
:10016000DF93182F88EE93E028EC30E0F901319707
:10017000F1F70197D9F788B1807F88B95D985F98CA
:100180005E9887B18F6087B9559A569A579A81E0E1
:100190008A95F1F75D9A419A82E0982F9A95F1F746
:1001A0005D988A95F1F788E592E00197F1F788E28A
:1001B00060E00E948600812F886060E00E948600D7
:1001C000812F8C6060E00E94860080E460E00E94E5
:1001D0008600C0E0D1E0899161E00E94860081E064
:1001E000C034D807C1F781E060E00E948600DF914B
:1001F000CF911F910895CF93DF93EC0110C085320A
:1002000051F4219688818053883028F085E261E09E
:100210000E948600888161E00E9486002196888184
:10022000882369F7DF91CF9108951F93CF93DF93D0
:10023000EC01FC01849114C0853261F42196FE0129
:100240001491812F8053883028F085E261E00E946C
:100250008600812F61E00E9486002196FE01849134
:10026000882351F7DF91CF911F910895EF92FF926C
:100270000F931F93DF93CF9300D000D00F92CDB791
:10028000DEB78C01F62E97FF08C08DE261E00E9478
:100290008600109501951F4F04C080E261E00E9426
:1002A0008600FE01319685E0DF011D928A95E9F70F
:1002B000FE0135960DC0C8016AE070E00E94B701EA
:1002C0008083C8016AE070E00E94B7018B0131971A
:1002D0000115110581F7BFEFFB1681F420E030E036
:1002E000AE014F5F5F4F02C02F5F3F4FFA01E20F39
:1002F000F31F80818823C1F3890108C08F2D9927BE
:1003000087FD909505E010E0081B190B7E0108940D
:10031000E11CF11CE00EF11E09C0F70181917F0183
:10032000805D61E00E9486000F5F1F4F0530110560
:10033000A4F30F900F900F900F900F90CF91DF913B
:100340001F910F91FF90EF900895843178F46230FF
:1003500031F0633031F0613029F4806403C08C5E89
:1003600001C08C5A806860E00E948600089597FB67
:10037000092E07260AD077FD04D00CD006D0002025
:100380001AF4709561957F4F0895F6F790958195D1
:100390009F4F0895AA1BBB1B51E107C0AA1FBB1F9B
:1003A000A617B70710F0A61BB70B881F991F5A9501
:1003B000A9F780959095BC01CD010895F894FFCFE1
:1003C0000000040E0400000000040E1F0E040000D4
:1003D000040404041F0E04000A15110A040000009E
:1003E0000A1F1F0E040000000C12120C0000000077
:1003F000040E1F040404040001021408000000009D
:00000001FF
