:100000000C9434000C9446000C9446000C9446006A
:100010000C9446000C9446000C9446000C94460048
:100020000C9446000C9446000C9446000C94460038
:100030000C9446000C9446000C9446000C94460028
:100040000C9446000C9446000C9446000C94460018
:100050000C9446000C9446000C9446000C94460008
:100060000C9446000C94460011241FBECFEFD8E03C
:10007000DEBFCDBF11E0A0E0B1E001C01D92A43011
:10008000B107E1F70E9448000C9416010C9400009F
:10009000509A589A88E99AE328EC30E0F9013197B0
:1000A000F1F70197D9F7589888E99AE328EC30E0FE
:1000B000F9013197F1F70197D9F71092B90082E071
:1000C0008093B80084EA8093BC008091BC0087FFD5
:1000D000FCCF8091B900887F883051F58AE3809306
:1000E000BB0084E88093BC008091BC0087FFFCCFFC
:1000F0008091B900887F8831D9F480E28093BB0079
:1001000084E88093BC008091BC0087FFFCCF809185
:10011000B900887F883261F487E88093BB0084E867
:100120008093BC008091BC0087FFFCCF8091B90018
:1001300084EA8093BC008091BC0087FFFCCF809153
:10014000B900887F803109F05DC08AE38093BB00ED
:1001500084E88093BC008091BC0087FFFCCF809135
:10016000B900887F883109F04DC088EA8093BB00D0
:1001700084E88093BC008091BC0087FFFCCF809115
:10018000B900887F8832F1F584EA8093BC008091C1
:10019000BC0087FFFCCF8091B900887F803191F54A
:1001A0008BE38093BB0084E88093BC008091BC000B
:1001B00087FFFCCF8091B900887F803419F584ECEB
:1001C0008093BC008091BC0087FFFCCF8091B90078
:1001D000887F8035B9F48091BB008093000184E86A
:1001E0008093BC008091BC0087FFFCCF8091B90058
:1001F000887F883539F48091BB008093010184E9C0
:100200008093BC003091010120E08091000190E0DA
:10021000822B932B9093030180930201892B11F081
:10022000589A01C0589880E090E00895F894FFCF64
:00000001FF
