:100000000C9434000C9446000C9446000C9446006A
:100010000C9446000C9446000C9446000C94460048
:100020000C9446000C9446000C9446000C94460038
:100030000C9446000C9446000C9446000C94460028
:100040000C9446000C9446000C9446000C94460018
:100050000C9446000C9446000C9446000C94460008
:100060000C9446000C94460011241FBECFEFD8E03C
:10007000DEBFCDBF11E0A0E0B1E001C01D92A43011
:10008000B107E1F70E9448000C9413010C940000A2
:10009000509A589A88E99AE328EC30E0F9013197B0
:1000A000F1F70197D9F758981092B90082E0809340
:1000B000B80084EA8093BC008091BC0087FFFCCF2D
:1000C0008091B900887F883079F48AE38093BB00FF
:1000D00084E88093BC008091BC0087FFFCCF8091B6
:1000E000B900887F883169F0909100014091010149
:1000F00020E030E064EAAAE354E8F8EAEBE374ECC9
:100100001CC080E28093BB0084E88093BC00809197
:10011000BC0087FFFCCF8091B900887F883221F72F
:1001200087E88093BB0084E88093BC008091BC008A
:1001300087FFFCCF8091B900D7CF6093BC0080913E
:10014000BC0087FFFCCF8091B900887F803109F027
:100150004DC0A093BB005093BC008091BC0087FFB2
:10016000FCCF8091B900887F883109F03FC0F093BF
:10017000BB005093BC008091BC0087FFFCCF8091F6
:10018000B900887F883291F56093BC008091BC00F3
:1001900087FFFCCF8091B900887F803139F5E093EB
:1001A000BB005093BC008091BC0087FFFCCF8091C6
:1001B000B900887F8034D1F47093BC008091BC007A
:1001C00087FFFCCF8091B900887F803579F49091CA
:1001D000BB005093BC008091BC0087FFFCCF809196
:1001E000B900887F883511F44091BB002F5F3F4FE5
:1001F0008FE12034380709F0A0CF9093000140939D
:100200000101342F20E0892F90E0822B932B9093D3
:10021000030180930201892B11F0589A01C058986C
:0A02200080E090E00895F894FFCF0D
:00000001FF
