:100000000C9434000C9451000C9451000C94D801C1
:100010000C9451000C9451000C9451000C9451001C
:100020000C9451000C9451000C9451000C94B401A8
:100030000C9451000C9451000C9451000C945100FC
:100040000C9451000C9451000C9451000C945100EC
:100050000C9451000C9451000C9451000C945100DC
:100060000C9451000C94510011241FBECFEFD8E026
:10007000DEBFCDBF12E0A0E0B1E0EEE3F4E102C0EC
:1000800005900D92A032B107D9F712E0A0E2B2E0DC
:1000900001C01D92A135B107E1F70E9453000C94F5
:1000A0001D0A0C9400001F93809181008260809350
:1000B000810080916F00826080936F0080910D01BC
:1000C00090910E0190938900809388008AB18F618E
:1000D0008AB92091150181E090E002C0880F991F34
:1000E0002A95E2F78BB97894ECEBF2E011E080917D
:1000F000200290912102A0912202B09123028D5FF3
:100100009840A040B040E8F08091200290912102F8
:10011000A0912202B091230288559B41A040B0409B
:1001200080F4F0930E01E0930D01F0931001E09341
:100130000F01F0931201E0931101F0931401E09389
:1001400013018091200290912102A0912202B0918E
:10015000230289559B41A040B04080F080914D0220
:10016000882361F410934D02809168008160809330
:10017000680080916B00826080936B0080914D02DB
:100180008F3F09F0B4CF8091200290912102A0917D
:100190002202B091230289559B41A040B040D8F182
:1001A0008091200290912102A0912202B09123021D
:1001B00080549C49A040B04070F56091310270912C
:1001C0003202605971408091330290913402409123
:1001D0003502509136022091370230913802205476
:1001E0003640260F371F80549640820F931F9093FE
:1001F0000E0180930D0140545640460F571F5093F7
:10020000100140930F01309312012093110170935C
:100210001401609313018091200290912102A0911A
:100220002202B091230281549C49A040B04008F4BE
:100230005ECFF0930E01E0930D01F0931001E09377
:100240000F01F0931201E0931101F0931401E09378
:1002500013014DCF4091840050918500809115018C
:1002600087FF31C081E0809315012BB130911501DA
:1002700081E090E002C0880F991F3A95E2F7282BA1
:100280002BB9509325024093240280910D01909147
:100290000E01840F951F90938900809388008091B0
:1002A000200290912102A0912202B0912302449653
:1002B000A11DB11D8093200290932102A0932202E0
:1002C000B0932302089580911501843094F5E09154
:1002D0001501FF27E7FDF095EE0FFF1FE35FFE4FCF
:1002E00080819181840F951F90938900809388006D
:1002F0004BB18091150121E030E0B90102C0660FD9
:10030000771F8A95E2F7CB01809584238BB94BB197
:1003100080911501992787FD9095019602C0220FC3
:10032000331F8A95E2F7422B4BB9809115018F5FFD
:1003300018C03BB12091150181E090E002C0880F08
:10034000991F2A95E2F7809583238BB98091240227
:1003500090912502805E914B909389008093880054
:100360008FEF8093150108951F920F920FB60F9291
:1003700011242F933F934F935F936F937F938F93AA
:100380009F93AF93BF93EF93FF930E942A01FF9136
:10039000EF91BF91AF919F918F917F916F915F91FD
:1003A0004F913F912F910F900FBE0F901F90189576
:1003B0001F920F920FB60F9211242F933F934F93DA
:1003C0006F937F938F939F936091840070918500CA
:1003D00043B18091300223B12093300220914E022C
:1003E000842790E030E02F5F3F4F02C095958795BE
:1003F0002A95E2F780FF7EC02091300280914E0264
:1004000030E090E0019602C0359527958A95E2F795
:1004100020FF05C070932F0260932E026BC0809165
:100420002E0290912F0280912E0290912F029B011B
:10043000281B390BC901885E93408957954008F005
:1004400059C080914E0290E001968230910589F06A
:10045000833091051CF40197D1F406C083309105D7
:1004600069F00497A1F40FC030933802209337024B
:100470000EC0309334022093330209C0309332020D
:100480002093310204C030933602209335028091CC
:100490004E02833021F410924E02589A05C080918A
:1004A0004E028F5F80934E0240916B0080914E020E
:1004B00021E030E0B90102C0660F771F8A95E2F7AC
:1004C000CB018095842380936B0040916B008091D9
:1004D0004E0290E0019602C0220F331F8A95E2F788
:1004E000422B40936B0080914D02813019F48FEFC5
:1004F00080934D029F918F917F916F914F913F918A
:100500002F910F900FBE0F901F9018950E947807A3
:1005100020E030E040E051E40E94EE0420E030E0D2
:1005200040E05EE30E94EE040E9418039B01AC01D0
:10053000CA0108950E94780720E030E040E051E4CD
:100540000E94EE0420E030E040E05EE30E94EE0412
:100550000E9418039B01AC01CA0108952F923F929B
:100560004F925F926F927F928F929F92AF92BF92C3
:10057000CF92DF92EF92FF920F931F93DF93CF936F
:10058000CDB7DEB739014A01150126010E9490045A
:100590005B016C016D897E898F89988DA201910123
:1005A0000E9490049B01AC01C601B5010E94EE04BB
:1005B0005B016C01C801B701A40193010E94900482
:1005C0009B01AC01C601B5010E94E805A2019101A1
:1005D0000E94C1047B018C01A20191010E94F406DA
:1005E00088231CF4820171010EC0C801B7012D8956
:1005F0003E894F89588D0E949406181624F4ED8880
:10060000FE880F89188DB701C801CF91DF911F9126
:100610000F91FF90EF90DF90CF90BF90AF909F90A1
:100620008F907F906F905F904F903F902F900895A4
:10063000EF92FF920F931F937B018C0120E030E03B
:1006400040E05FE40E94C40688238CF0C801B70133
:1006500020E030E040E05FE40E9490040E94240724
:100660009B01AC01205030404040504806C0C801BA
:10067000B7010E9424079B01AC01B901CA011F9177
:100680000F91FF90EF900895A0E0B0E0EAE4F3E06E
:100690000C94E609DC012B01FA019C91923008F4DC
:1006A00039C1EB018881823008F433C1943069F498
:1006B000843009F02FC111969C9111978981981768
:1006C00009F428C1A7E1B1E025C1843009F421C1B2
:1006D0008230A9F4923009F01DC19A01AD0188E081
:1006E000EA010990AE01E90109929E018150C1F72A
:1006F000E201898111969C918923818308C19230FE
:1007000009F407C112962D903C901397EB018A8152
:100710009B811496AD90BD90CD90DC901797EC80A6
:10072000FD800E811F819101281B390BB90137FF14
:1007300004C066277727621B730B603271050CF0CB
:1007400061C0121613066CF537014801062E04C06D
:1007500096948794779467940A94D2F721E030E0D6
:1007600040E050E004C0220F331F441F551F6A951C
:10077000D2F721503040404050402E213F214023AD
:100780005123211531054105510521F021E030E0CB
:1007900040E050E079018A01E628F7280829192964
:1007A0003CC0232BD1F1260E371E35014601062E03
:1007B00004C096948794779467940A94D2F721E0C2
:1007C00030E040E050E004C0220F331F441F551FAB
:1007D0006A95D2F721503040404050402A213B21B9
:1007E0004C215D21211531054105510521F021E004
:1007F00030E040E050E059016A01A628B728C82837
:10080000D9280BC0821593052CF01C01AA24BB2407
:10081000650103C0EE24FF24870111969C91D2014B
:1008200011968C91981709F445C0992339F0A801C5
:1008300097012A193B094C095D0906C0A6019501DB
:100840002E193F09400B510B57FD08C0118233820E
:10085000228224833583468357831DC081E08183B0
:100860003382228288279927DC01821B930BA40BF9
:10087000B50B84839583A683B7830DC0220F331FE6
:10088000441F551F24833583468357838281938178
:100890000197938382832481358146815781DA01D0
:1008A000C9010197A109B1098F5F9F4FAF4FBF43A6
:1008B00028F30BC0918333822282EA0CFB1C0C1DAF
:1008C0001D1DE482F5820683178383E080832481E3
:1008D00035814681578157FF1AC0C901AA2797FD64
:1008E000A095BA2F81709070A070B0705695479502
:1008F00037952795822B932BA42BB52B8483958337
:10090000A683B78382819381019693838283DF01DB
:1009100001C0D201CD01CDB7DEB7E2E10C94020AED
:10092000A0E2B0E0E6E9F4E00C94F20969837A838E
:100930008B839C832D833E834F835887E9E0EE2E83
:10094000F12CEC0EFD1ECE010196B7010E94150997
:100950008E010F5E1F4FCE010596B8010E9415094A
:100960008A8991E089278A8BC701B801AE01475E69
:100970005F4F0E9444030E944008A096E6E00C945A
:100980000E0AA0E2B0E0E7ECF4E00C94F20969830F
:100990007A838B839C832D833E834F835887F9E032
:1009A000EF2EF12CEC0EFD1ECE010196B7010E9438
:1009B00015098E010F5E1F4FCE010596B8010E94EA
:1009C0001509C701B801AE01475E5F4F0E9444039D
:1009D0000E944008A096E6E00C940E0AA0E2B0E067
:1009E000E4EFF4E00C94E60969837A838B839C83BB
:1009F0002D833E834F835887CE010196BE01675FEA
:100A00007F4F0E941509CE010596BE016F5E7F4F94
:100A10000E9415099985923088F089898230C8F042
:100A2000943019F4823051F404C0843029F49230A7
:100A300081F487E191E0C6C0923049F420E09A85C4
:100A40008A89981321E02A87CE010996BBC082309B
:100A500049F420E09A858A89981321E02A8BCE01F7
:100A60004196B0C02D843E844F8458886D887E881E
:100A70008F88988CEE24FF248701AA24BB2465016B
:100A800040E050E060E070E0E0E0F0E0C101817043
:100A90009070892BE9F0E60CF71C081D191D9A01CE
:100AA000AB012A0D3B1D4C1D5D1D80E090E0A0E0D8
:100AB000B0E0E614F7040805190520F481E090E0A1
:100AC000A0E0B0E0BA01A901480F591F6A1F7B1FBF
:100AD000AA0CBB1CCC1CDD1C97FE08C081E090E07A
:100AE000A0E0B0E0A82AB92ACA2ADB2A3196E0326F
:100AF000F10549F0660C771C881C991C56944794A4
:100B000037942794C3CFFA85EA892B893C898B8552
:100B10009C85280F391F2E5F3F4F17C0CA01817077
:100B20009070892B61F016950795F794E79480E013
:100B300090E0A0E0B0E8E82AF92A0A2B1B2B769572
:100B40006795579547952F5F3F4F77FDE7CF0CC0CF
:100B5000440F551F661F771F17FD4160EE0CFF1CE9
:100B6000001F111F21503040403090E0590790E0A5
:100B7000690790E4790760F32B8F3C8FDB01CA0192
:100B80008F779070A070B07080349105A105B10589
:100B900061F447FD0AC0E114F1040105110529F0D3
:100BA000405C5F4F6F4F7F4F40781A8EFE1711F0F9
:100BB00081E08A8F4D8F5E8F6F8F78A383E0898F5E
:100BC000CE0149960E944008A096E2E10C94020AE8
:100BD000A8E1B0E0EEEEF5E00C94EE0969837A83CB
:100BE0008B839C832D833E834F835887B9E0EB2E04
:100BF000F12CEC0EFD1ECE010196B7010E941509E5
:100C00008E010F5E1F4FCE010596B8010E94150997
:100C10002985223008F47EC03989323010F4B801B9
:100C20007CC08A859A8989278A87243011F02230EE
:100C300031F4231709F06EC067E171E06EC0343003
:100C400039F41D861E861F86188A1C861B8604C0E2
:100C5000323021F484E08987B7015FC02B853C8561
:100C60008B899C89281B390B3C872B87ED84FE845C
:100C70000F851889AD88BE88CF88D88CEA14FB040C
:100C80000C051D0540F4EE0CFF1C001F111F215028
:100C900030403C872B8720E030E040E050E080E0AF
:100CA00090E0A0E0B0E460E070E0EA14FB040C0522
:100CB0001D0540F0282B392B4A2B5B2BEA18FB082B
:100CC0000C091D09B695A79597958795EE0CFF1C05
:100CD000001F111F6F5F7F4F6F31710531F7DA0110
:100CE000C9018F779070A070B07080349105A10514
:100CF000B10561F427FD0AC0E114F10401051105F5
:100D000029F0205C3F4F4F4F5F4F20782D873E8763
:100D10004F87588BBE01675F7F4FCB010E94400811
:100D20006896EAE00C940A0AA8E1B0E0EAE9F6E085
:100D30000C94F20969837A838B839C832D833E8391
:100D40004F83588789E0E82EF12CEC0EFD1ECE0172
:100D50000196B7010E9415098E010F5E1F4FCE014B
:100D60000596B8010E9415098985823040F089896D
:100D7000823028F0C701B8010E948D0901C08FEFB1
:100D80006896E6E00C940E0AA8E1B0E0EAECF6E022
:100D90000C94F20969837A838B839C832D833E8331
:100DA0004F83588789E0E82EF12CEC0EFD1ECE0112
:100DB0000196B7010E9415098E010F5E1F4FCE01EB
:100DC0000596B8010E9415098985823040F089890D
:100DD000823028F0C701B8010E948D0901C08FEF51
:100DE0006896E6E00C940E0AA8E1B0E0EAEFF6E0BF
:100DF0000C94F20969837A838B839C832D833E83D1
:100E00004F83588789E0E82EF12CEC0EFD1ECE01B1
:100E10000196B7010E9415098E010F5E1F4FCE018A
:100E20000596B8010E9415098985823040F08989AC
:100E3000823028F0C701B8010E948D0901C081E00D
:100E40006896E6E00C940E0AACE0B0E0EAE2F7E067
:100E50000C94F60969837A838B839C83CE01019677
:100E6000BE016B5F7F4F0E9415098D81823061F159
:100E7000823050F1843021F48E81882351F12EC0CC
:100E80002F81388537FD20C06E812F3131051CF050
:100E90006623F9F023C08EE190E0821B930B298535
:100EA0003A854B855C8504C05695479537952795BF
:100EB0008A95D2F76623B1F05095409530952195EB
:100EC0003F4F4F4F5F4F0EC020E030E040E050E01A
:100ED00009C02FEF3FEF4FEF5FE704C020E030E0A5
:100EE00040E050E8B901CA012C96E2E00C94120AE5
:100EF000A8E0B0E0EEE7F7E00C94EE097B018C018E
:100F0000611571058105910519F482E0898360C03E
:100F100083E089838EE1C82ED12CDC82CB82ED82E6
:100F2000FE820F831887C801B7010E94F107FC01F8
:100F30003197F7FF3BC0222733272E1B3F0B57016A
:100F40006801022E04C0D694C794B794A7940A945B
:100F5000D2F740E050E060E070E081E090E0A0E097
:100F6000B0E004C0880F991FAA1FBB1F2A95D2F7B3
:100F70000197A109B1098E219F21A023B1230097D8
:100F8000A105B10521F041E050E060E070E04A29A0
:100F90005B296C297D294D835E836F8378878EE181
:100FA00090E08E1B9F0B9C838B8312C0309781F047
:100FB0000E2E04C0EE0CFF1C001F111F0A94D2F766
:100FC000ED82FE820F831887CE1ADF0ADC82CB8285
:100FD0001A82CE0101960E9440082896EAE00C94FD
:100FE0000A0AEF92FF920F931F937B018C0180E01E
:100FF000E81680E0F80681E0080780E0180788F42A
:101000008FEFE816F1040105110531F028F088E0B2
:1010100090E0A0E0B0E017C080E090E0A0E0B0E099
:1010200012C080E0E81680E0F80680E0080781E062
:10103000180728F088E190E0A0E0B0E004C080E16B
:1010400090E0A0E0B0E020E230E040E050E0281B7B
:10105000390B4A0B5B0B04C016950795F794E79480
:101060008A95D2F7F701E15EFE4F8081281B310996
:1010700041095109C9011F910F91FF90EF90089507
:10108000DF92EF92FF920F931F93FC01E480F580B3
:1010900006811781D1808081823048F480E090E021
:1010A000A0E1B0E0E82AF92A0A2B1B2BA5C0843066
:1010B00009F49FC0823021F4EE24FF24870105C08B
:1010C000E114F1040105110519F4E0E0F0E096C027
:1010D000628173819FEF623879070CF05BC022E870
:1010E0003FEF261B370B2A3131052CF020E030E092
:1010F00040E050E02AC0B801A701022E04C0769556
:101100006795579547950A94D2F781E090E0A0E063
:10111000B0E004C0880F991FAA1FBB1F2A95D2F701
:101120000197A109B1098E219F21A023B123009726
:10113000A105B10521F081E090E0A0E0B0E09A01C6
:10114000AB01282B392B4A2B5B2BDA01C9018F7796
:101150009070A070B07080349105A105B10539F48C
:1011600027FF09C0205C3F4F4F4F5F4F04C0215CF9
:101170003F4F4F4F5F4FE0E0F0E02030A0E03A07F4
:10118000A0E04A07A0E45A0710F0E1E0F0E079019E
:101190008A0127C06038710564F5FB01E158FF4FF3
:1011A000D801C7018F779070A070B070803491051E
:1011B000A105B10539F4E7FE0DC080E490E0A0E0A0
:1011C000B0E004C08FE390E0A0E0B0E0E80EF91ECC
:1011D0000A1F1B1F17FF05C016950795F794E79484
:1011E000319687E016950795F794E7948A95D1F79D
:1011F00005C0EE24FF248701EFEFF0E06E2F679526
:1012000066276795902F9F77D794DD24D7948E2FEC
:101210008695492F462B582F5D29B701CA011F918A
:101220000F91FF90EF90DF900895FC01DB0140816A
:1012300051812281622F6F7770E0221F2227221FA7
:101240009381892F880F822B282F30E0991F9927AF
:10125000991F11969C93119721153105A9F54115F8
:1012600051056105710511F482E037C082E89FEFF6
:1012700013969C938E9312979A01AB0167E0220F0D
:10128000331F441F551F6A95D1F783E08C930DC01F
:10129000220F331F441F551F12968D919C91139757
:1012A000019713969C938E931297203080E0380715
:1012B00080E0480780E4580758F314962D933D9337
:1012C0004D935C93179708952F3F310579F441159D
:1012D00051056105710519F484E08C93089564FF4C
:1012E00003C081E08C9312C01C9210C02F57304075
:1012F00013963C932E93129783E08C9387E0440FD0
:10130000551F661F771F8A95D1F7706414964D9309
:101310005D936D937C93179708951F93DC01FB01F8
:101320009C91923008F447C08081823008F443C019
:10133000943051F411961C91843099F58181682F75
:1013400070E0611B71093FC0843021F0923031F4AC
:101350008230B9F18181882389F12DC011961C91C9
:1013600011978230F1F081811817D9F412962D91DE
:101370003C911397828193818217930794F02817E9
:101380003907BCF014968D919D910D90BC91A02DC4
:101390002481358146815781281739074A075B0721
:1013A00018F4112341F00AC082179307A407B50768
:1013B00040F4112319F061E070E005C06FEF7FEF9A
:1013C00002C060E070E0CB011F9108952F923F9220
:1013D0004F925F926F927F928F929F92AF92BF9245
:1013E000CF92DF92EF92FF920F931F93CF93DF93F1
:1013F000CDB7DEB7CA1BDB0B0FB6F894DEBF0FBE4E
:10140000CDBF09942A88398848885F846E847D849A
:101410008C849B84AA84B984C884DF80EE80FD809C
:101420000C811B81AA81B981CE0FD11D0FB6F89412
:0E143000DEBF0FBECDBFED010895F894FFCFD3
:10143E0000000041087805D007BC027805FC08FCC6
:10144E0008FC08FC0801FF0000000000000000007E
:10145E000102020303030304040404040404040548
:10146E00050505050505050505050505050505061D
:10147E0006060606060606060606060606060606FE
:10148E0006060606060606060606060606060607ED
:10149E0007070707070707070707070707070707CE
:1014AE0007070707070707070707070707070707BE
:1014BE0007070707070707070707070707070707AE
:1014CE00070707070707070707070707070707089D
:1014DE00080808080808080808080808080808087E
:1014EE00080808080808080808080808080808086E
:1014FE00080808080808080808080808080808085E
:10150E00080808080808080808080808080808084D
:10151E00080808080808080808080808080808083D
:10152E00080808080808080808080808080808082D
:10153E00080808080808080808080808080808081D
:10154E000808080808080808080808080808080015
:00000001FF
