:100000000C9434000C9451000C9451000C946C012D
:100010000C9451000C9451000C9451000C9451001C
:100020000C9451000C9451000C9451000C94A500B8
:100030000C9451000C9451000C9451000C945100FC
:100040000C9451000C9451000C9451000C945100EC
:100050000C9451000C9451000C9451000C945100DC
:100060000C9451000C94510011241FBECFEFD8E026
:10007000DEBFCDBF12E0A0E0B1E0E2E9F1E102C0F5
:1000800005900D92AE31B107D9F712E0AEE1B2E0C2
:1000900001C01D92AD32B107E1F70E9453000C94EC
:1000A000C7080C940000809168008160809368000C
:1000B00080916B008F6080936B00809181008260E3
:1000C0008093810080916F00826080936F008091A7
:1000D0000D0190910E0190938900809388008AB160
:1000E0008F618AB92091150181E090E002C0880FEC
:1000F000991F2A95E2F78BB9789420E233E080913A
:100100001E0290911F02A0912002B09121028955F8
:100110009B41A040B04098F3309314012093130109
:10012000EECF0E94C60520E030E040E051E40E949E
:10013000480420E030E040E05EE30E9448040E9472
:1001400072029B01AC01CA0108951F920F920FB673
:100150000F921124EF92FF920F931F932F933F93CF
:100160004F935F936F937F938F939F93AF93BF93BF
:10017000EF93FF938091150187FF45C0E0908400C5
:10018000F090850060E27EE480E090E00E949100C3
:1001900000E010E0E616F7060807190778F110925C
:1001A00085001092840081E0809315012BB130917D
:1001B000150181E090E002C0880F991F3A95E2F79F
:1001C000282B2BB980910D0190910E0190938900FD
:1001D0008093880080911E0290911F02A0912002BE
:1001E000B09121024496A11DB11D80931E029093EF
:1001F0001F02A0932002B093210259C0709389007E
:100200006093880054C0809115018430B4F520912A
:10021000840030918500E0911501FF27E7FDF095FE
:10022000EE0FFF1FE35FFE4F80819181820F931FCE
:1002300090938900809388004BB18091150121E053
:1002400030E0B90102C0660F771F8A95E2F7CB0153
:10025000809584238BB94BB180911501992787FD37
:100260009095019602C0220F331F8A95E2F7422B28
:100270004BB9809115018F5F18C03BB120911501DA
:1002800081E090E002C0880F991F2A95E2F78095DF
:1002900083238BB980918400909185008053984F7F
:1002A00090938900809388008FEF80931501FF91D0
:1002B000EF91BF91AF919F918F917F916F915F91DE
:1002C0004F913F912F911F910F91FF90EF900F90C1
:1002D0000FBE0F901F9018951F920F920FB60F929E
:1002E0001124EF92FF920F931F932F933F934F93FD
:1002F0005F936F937F938F939F93AF93BF93EF938E
:10030000FF9383B19091240223B120932402982774
:1003100093FF53C01B9B09C080918400909185007E
:10032000909323028093220248C020918400309150
:10033000850080912202909123028217930768F42E
:1003400060918400709185002091220230912302F7
:10035000621B730B80E090E01CC060E27EE480E0F2
:1003600090E00E9491007B018C012091220230914B
:100370002302609184007091850080E090E06E0D12
:100380007F1D801F911F40E050E0621B730B840BA8
:10039000950B0E94C60520E030E040E051E40E9449
:1003A000480420E030E040E05EE30E9448040E9400
:1003B00072027093260260932502FF91EF91BF9124
:1003C000AF919F918F917F916F915F914F913F91ED
:1003D0002F911F910F91FF90EF900F900FBE0F90F4
:1003E0001F9018950E94C60520E030E040E051E4DF
:1003F0000E94480420E030E040E05EE30E944804B0
:100400000E9472029B01AC01CA0108952F923F9293
:100410004F925F926F927F928F929F92AF92BF9214
:10042000CF92DF92EF92FF920F931F93DF93CF93C0
:1004300000D000D0CDB7DEB73B014C0119012A0135
:10044000A982BA82CB82DC82698D7A8D8B8D9C8D5C
:100450006A197B098C099D09621A730A840A950A34
:10046000A40193010E943408E218F3080409150955
:10047000A80197010E94530859016A0129813A8114
:100480004B815C81A20EB31EC41ED51EA216B306FC
:10049000C406D5061CF459016A010BC0898D9A8DDA
:1004A000AB8DBC8D8A159B05AC05BD0514F45C01B4
:1004B0006D01B501C6010F900F900F900F90CF9175
:1004C000DF911F910F91FF90EF90DF90CF90BF9041
:1004D000AF909F908F907F906F905F904F903F90E4
:1004E0002F900895EF92FF920F931F937B018C0141
:1004F00020E030E040E05FE40E94420588238CF079
:10050000C801B70120E030E040E05FE40E94EA0368
:100510000E9472059B01AC01205030404040504881
:1005200006C0C801B7010E9472059B01AC01B90168
:10053000CA011F910F91FF90EF900895A0E0B0E0E5
:10054000E4EAF2E00C949008DC012B01FA019C91A2
:10055000923008F439C1EB018881823008F433C14C
:10056000943069F4843009F02FC111969C91119751
:100570008981981709F428C1A6E1B1E025C184302A
:1005800009F421C18230A9F4923009F01DC19A0109
:10059000AD0188E0EA010990AE01E90109929E01EE
:1005A0008150C1F7E201898111969C918923818351
:1005B00008C1923009F407C112962D903C90139710
:1005C000EB018A819B811496AD90BD90CD90DC901B
:1005D0001797EC80FD800E811F819101281B390B3C
:1005E000B90137FF04C066277727621B730B60329F
:1005F00071050CF061C0121613066CF53701480145
:10060000062E04C096948794779467940A94D2F740
:1006100021E030E040E050E004C0220F331F441FCF
:10062000551F6A95D2F721503040404050402E214E
:100630003F2140235123211531054105510521F06A
:1006400021E030E040E050E079018A01E628F72817
:10065000082919293CC0232BD1F1260E371E35015C
:100660004601062E04C096948794779467940A9462
:10067000D2F721E030E040E050E004C0220F331F09
:10068000441F551F6A95D2F72150304040405040DA
:100690002A213B214C215D212115310541055105C0
:1006A00021F021E030E040E050E059016A01A62845
:1006B000B728C828D9280BC0821593052CF01C0137
:1006C000AA24BB24650103C0EE24FF2487011196F0
:1006D0009C91D20111968C91981709F445C09923E9
:1006E00039F0A80197012A193B094C095D0906C098
:1006F000A60195012E193F09400B510B57FD08C06B
:1007000011823382228224833583468357831DC01E
:1007100081E081833382228288279927DC01821B32
:10072000930BA40BB50B84839583A683B7830DC06D
:10073000220F331F441F551F24833583468357835D
:1007400082819381019793838283248135814681BD
:100750005781DA01C9010197A109B1098F5F9F4F44
:10076000AF4FBF4328F30BC0918333822282EA0C40
:10077000FB1C0C1D1D1DE482F5820683178383E09C
:100780008083248135814681578157FF1AC0C90172
:10079000AA2797FDA095BA2F81709070A070B070B5
:1007A0005695479537952795822B932BA42BB52BE0
:1007B00084839583A683B7838281938101969383F3
:1007C0008283DF0101C0D201CD01CDB7DEB7E2E106
:1007D0000C94AC08A0E2B0E0E0EFF3E00C949C08CD
:1007E00069837A838B839C832D833E834F835887D1
:1007F000E9E0EE2EF12CEC0EFD1ECE010196B701C4
:100800000E9463078E010F5E1F4FCE010596B8014F
:100810000E9463078A8991E089278A8BC701B80102
:10082000AE01475E5F4F0E949E020E948E06A09618
:10083000E6E00C94B808A0E2B0E0E1E2F4E00C9449
:100840009C0869837A838B839C832D833E834F83AB
:100850005887F9E0EF2EF12CEC0EFD1ECE0101962B
:10086000B7010E9463078E010F5E1F4FCE010596F0
:10087000B8010E946307C701B801AE01475E5F4F30
:100880000E949E020E948E06A096E6E00C94B80894
:10089000A0E2B0E0EEE4F4E00C94900869837A837F
:1008A0008B839C832D833E834F835887CE01019693
:1008B000BE01675F7F4F0E946307CE010596BE01B0
:1008C0006F5E7F4F0E9463079985923088F0898917
:1008D0008230C8F0943019F4823051F404C084306E
:1008E00029F4923081F486E191E0C6C0923049F457
:1008F00020E09A858A89981321E02A87CE010996FB
:10090000BBC0823049F420E09A858A89981321E09F
:100910002A8BCE014196B0C02D843E844F845888E6
:100920006D887E888F88988CEE24FF248701AA2406
:10093000BB24650140E050E060E070E0E0E0F0E002
:10094000C10181709070892BE9F0E60CF71C081D3D
:10095000191D9A01AB012A0D3B1D4C1D5D1D80E048
:1009600090E0A0E0B0E0E614F7040805190520F4D3
:1009700081E090E0A0E0B0E0BA01A901480F591F62
:100980006A1F7B1FAA0CBB1CCC1CDD1C97FE08C079
:1009900081E090E0A0E0B0E0A82AB92ACA2ADB2AC8
:1009A0003196E032F10549F0660C771C881C991CE1
:1009B0005694479437942794C3CFFA85EA892B89B4
:1009C0003C898B859C85280F391F2E5F3F4F17C0B0
:1009D000CA0181709070892B61F016950795F79484
:1009E000E79480E090E0A0E0B0E8E82AF92A0A2B3A
:1009F0001B2B76956795579547952F5F3F4F77FD52
:100A0000E7CF0CC0440F551F661F771F17FD4160CD
:100A1000EE0CFF1C001F111F21503040403090E0B1
:100A2000590790E0690790E4790760F32B8F3C8FBA
:100A3000DB01CA018F779070A070B070803491058F
:100A4000A105B10561F447FD0AC0E114F1040105F7
:100A5000110529F0405C5F4F6F4F7F4F40781A8E31
:100A6000FE1711F081E08A8F4D8F5E8F6F8F78A314
:100A700083E0898FCE0149960E948E06A096E2E11E
:100A80000C94AC08A8E1B0E0E8E4F5E00C949C0814
:100A900069837A838B839C832D833E834F8358871E
:100AA00089E0E82EF12CEC0EFD1ECE010196B70177
:100AB0000E9463078E010F5E1F4FCE010596B8019D
:100AC0000E9463078985823040F08989823028F04E
:100AD000C701B8010E94DB0701C08FEF6896E6E00E
:100AE0000C94B808ACE0B0E0E8E7F5E00C94A0089E
:100AF00069837A838B839C83CE010196BE016B5FF1
:100B00007F4F0E9463078D81823061F1823050F106
:100B1000843021F48E81882351F12EC02F813885B5
:100B200037FD20C06E812F3131051CF06623F9F0AE
:100B300023C08EE190E0821B930B29853A854B857B
:100B40005C8504C056954795379527958A95D2F7C9
:100B50006623B1F050954095309521953F4F4F4F0A
:100B60005F4F0EC020E030E040E050E009C02FEFC2
:100B70003FEF4FEF5FE704C020E030E040E050E897
:100B8000B901CA012C96E2E00C94BC08A8E0B0E0E0
:100B9000ECECF5E00C9498087B018C016115710573
:100BA0008105910519F482E0898360C083E089831F
:100BB0008EE1C82ED12CDC82CB82ED82FE820F83A7
:100BC0001887C801B7010E943F06FC013197F7FF63
:100BD0003BC0222733272E1B3F0B57016801022EF3
:100BE00004C0D694C794B794A7940A94D2F740E06F
:100BF00050E060E070E081E090E0A0E0B0E004C090
:100C0000880F991FAA1FBB1F2A95D2F70197A10928
:100C1000B1098E219F21A023B1230097A105B10521
:100C200021F041E050E060E070E04A295B296C2946
:100C30007D294D835E836F8378878EE190E08E1BE4
:100C40009F0B9C838B8312C0309781F00E2E04C0C3
:100C5000EE0CFF1C001F111F0A94D2F7ED82FE82DA
:100C60000F831887CE1ADF0ADC82CB821A82CE016C
:100C700001960E948E062896EAE00C94B408EF9242
:100C8000FF920F931F937B018C0180E0E81680E0B8
:100C9000F80681E0080780E0180788F48FEFE8166F
:100CA000F1040105110531F028F088E090E0A0E0A2
:100CB000B0E017C080E090E0A0E0B0E012C080E0BB
:100CC000E81680E0F80680E0080781E0180728F0C1
:100CD00088E190E0A0E0B0E004C080E190E0A0E016
:100CE000B0E020E230E040E050E0281B390B4A0B36
:100CF0005B0B04C016950795F794E7948A95D2F795
:100D0000F701E25EFE4F8081281B3109410951093C
:100D1000C9011F910F91FF90EF900895DF92EF921C
:100D2000FF920F931F93FC01E480F58006811781E9
:100D3000D1808081823048F480E090E0A0E1B0E092
:100D4000E82AF92A0A2B1B2BA5C0843009F49FC07E
:100D5000823021F4EE24FF24870105C0E114F10460
:100D60000105110519F4E0E0F0E096C0628173819D
:100D70009FEF623879070CF05BC022E83FEF261B3B
:100D8000370B2A3131052CF020E030E040E050E014
:100D90002AC0B801A701022E04C076956795579521
:100DA00047950A94D2F781E090E0A0E0B0E004C05B
:100DB000880F991FAA1FBB1F2A95D2F70197A10977
:100DC000B1098E219F21A023B1230097A105B10570
:100DD00021F081E090E0A0E0B0E09A01AB01282B87
:100DE000392B4A2B5B2BDA01C9018F779070A070E9
:100DF000B07080349105A105B10539F427FF09C011
:100E0000205C3F4F4F4F5F4F04C0215C3F4F4F4F1F
:100E10005F4FE0E0F0E02030A0E03A07A0E04A07B2
:100E2000A0E45A0710F0E1E0F0E079018A0127C060
:100E30006038710564F5FB01E158FF4FD801C70127
:100E40008F779070A070B07080349105A105B105C6
:100E500039F4E7FE0DC080E490E0A0E0B0E004C00B
:100E60008FE390E0A0E0B0E0E80EF91E0A1F1B1F20
:100E700017FF05C016950795F794E794319687E01C
:100E800016950795F794E7948A95D1F705C0EE2457
:100E9000FF248701EFEFF0E06E2F679566276795D7
:100EA000902F9F77D794DD24D7948E2F8695492F46
:100EB000462B582F5D29B701CA011F910F91FF9052
:100EC000EF90DF900895FC01DB0140815181228188
:100ED000622F6F7770E0221F2227221F9381892FB4
:100EE000880F822B282F30E0991F9927991F119680
:100EF0009C93119721153105A9F5411551056105FF
:100F0000710511F482E037C082E89FEF13969C933D
:100F10008E9312979A01AB0167E0220F331F441F93
:100F2000551F6A95D1F783E08C930DC0220F331FB4
:100F3000441F551F12968D919C91139701971396FC
:100F40009C938E931297203080E0380780E048070A
:100F500080E4580758F314962D933D934D935C937A
:100F6000179708952F3F310579F441155105610513
:100F7000710519F484E08C93089564FF03C081E047
:100F80008C9312C01C9210C02F57304013963C9384
:100F90002E93129783E08C9387E0440F551F661FB2
:100FA000771F8A95D1F7706414964D935D936D9376
:100FB0007C93179708951F93DC01FB019C9192305D
:100FC00008F447C08081823008F443C0943051F463
:100FD00011961C91843099F58181682F70E0611B16
:100FE00071093FC0843021F0923031F48230B9F180
:100FF0008181882389F12DC011961C91119782302F
:10100000F1F081811817D9F412962D913C91139724
:10101000828193818217930794F028173907BCF0D7
:1010200014968D919D910D90BC91A02D24813581B8
:1010300046815781281739074A075B0718F411239F
:1010400041F00AC082179307A407B50740F41123A3
:1010500019F061E070E005C06FEF7FEF02C060E063
:1010600070E0CB011F910895629FD001739FF00142
:10107000829FE00DF11D649FE00DF11D929FF00D28
:10108000839FF00D749FF00D659FF00D9927729F5F
:10109000B00DE11DF91F639FB00DE11DF91FBD01EA
:1010A000CF011124089597FB092E05260ED057FD78
:1010B00004D014D00AD0001C38F4509540953095D7
:1010C00021953F4F4F4F5F4F0895F6F790958095CC
:1010D000709561957F4F8F4F9F4F0895A1E21A2E13
:1010E000AA1BBB1BFD010DC0AA1FBB1FEE1FFF1FCC
:1010F000A217B307E407F50720F0A21BB30BE40B1C
:10110000F50B661F771F881F991F1A9469F7609562
:101110007095809590959B01AC01BD01CF0108951C
:101120002F923F924F925F926F927F928F929F92F7
:10113000AF92BF92CF92DF92EF92FF920F931F93E5
:10114000CF93DF93CDB7DEB7CA1BDB0B0FB6F89496
:10115000DEBF0FBECDBF09942A88398848885F84D6
:101160006E847D848C849B84AA84B984C884DF8047
:10117000EE80FD800C811B81AA81B981CE0FD11D2B
:101180000FB6F894DEBF0FBECDBFED010895F89401
:02119000FFCF8F
:1011920000000041087805D007BC022003BC02BC55
:1011A20002BC02BC020100000000000000000001BD
:1011B20002020303030304040404040404040505F3
:1011C20005050505050505050505050505050606CB
:1011D20006060606060606060606060606060606AD
:1011E200060606060606060606060606060607079B
:1011F200070707070707070707070707070707077D
:10120200070707070707070707070707070707076C
:10121200070707070707070707070707070707075C
:10122200070707070707070707070707070708084A
:10123200080808080808080808080808080808082C
:10124200080808080808080808080808080808081C
:10125200080808080808080808080808080808080C
:1012620008080808080808080808080808080808FC
:1012720008080808080808080808080808080808EC
:1012820008080808080808080808080808080808DC
:1012920008080808080808080808080808080808CC
:0E12A2000808080808080808080808080808CE
:00000001FF
