:100000000C9434000C9451000C9451000C948B010E
:100010000C9451000C9451000C9451000C9451001C
:100020000C9451000C9451000C9451000C94080154
:100030000C9451000C9451000C9451000C945100FC
:100040000C9451000C9451000C9451000C945100EC
:100050000C9451000C9451000C9451000C945100DC
:100060000C9451000C94510011241FBECFEFD8E026
:10007000DEBFCDBF12E0A0E0B1E0E2E6F2E102C0F7
:1000800005900D92A032B107D9F712E0A0E2B2E0DC
:1000900001C01D92AF32B107E1F70E942F020C940C
:1000A0002F090C9400000E942E0620E030E040E072
:1000B00051E40E94B00420E030E040E05EE30E94A2
:1000C000B0040E94DA029B01AC01CA010895CF93EB
:1000D000DF93C0918400D09185008091150187FF46
:1000E00044C060E27EE480E090E00E9453009B0107
:1000F000AC01CE01A0E0B0E082179307A407B507DA
:1001000078F1109285001092840081E080931501AF
:100110002BB13091150181E090E002C0880F991F4A
:100120003A95E2F7282B2BB980910D0190910E01A1
:100130009093890080938800809120029091210201
:10014000A0912202B09123024496A11DB11D80937B
:10015000200290932102A0932202B093230255C063
:10016000309389002093880050C08091150184301D
:1001700094F5E0911501FF27E7FDF095EE0FFF1FC5
:10018000E35FFE4F808191818C0F9D1F90938900CA
:10019000809388004BB18091150121E030E0B901D6
:1001A00002C0660F771F8A95E2F7CB018095842302
:1001B0008BB94BB180911501992787FD90950196D8
:1001C00002C0220F331F8A95E2F7422B4BB9809170
:1001D00015018F5F18C03BB12091150181E090E0BF
:1001E00002C0880F991F2A95E2F7809583238BB967
:1001F00060E27EE480E090E00E945300709389000A
:10020000609388008FEF80931501DF91CF9108955F
:100210001F920F920FB60F9211242F933F934F937B
:100220005F936F937F938F939F93AF93BF93EF935E
:10023000FF930E946700FF91EF91BF91AF919F9153
:100240008F917F916F915F914F913F912F910F907F
:100250000FBE0F901F901895EF92FF920F931F9370
:10026000CF93DF93C0918400D091850083B19091AA
:10027000260223B120932602982793FF45C01B9B9B
:1002800005C0D0932502C09324023EC08091240271
:10029000909125028C179D0750F480912402909133
:1002A0002502C81BD90BBE0180E090E019C060E2B6
:1002B0007EE480E090E00E9453007B018C0120915D
:1002C000240230912502BE0180E090E06E0D7F1D7A
:1002D000801F911F40E050E0621B730B840B950B55
:1002E0000E942E0620E030E040E051E40E94B0047D
:1002F00020E030E040E05EE30E94B0040E94DA02B9
:100300007093280260932702DF91CF911F910F9184
:10031000FF90EF9008951F920F920FB60F92112445
:100320002F933F934F935F936F937F938F939F93FD
:10033000AF93BF93EF93FF930E942C01FF91EF9136
:10034000BF91AF919F918F917F916F915F914F91ED
:100350003F912F910F900FBE0F901F9018950E9404
:100360002E0620E030E040E051E40E94B00420E09E
:1003700030E040E05EE30E94B0040E94DA029B019C
:10038000AC01CA0108952F923F924F925F926F92F3
:100390007F928F929F92AF92BF92CF92DF92EF9215
:1003A000FF920F931F93DF93CF9300D000D0CDB770
:1003B000DEB73B014C0119012A01A982BA82CB8226
:1003C000DC82698D7A8D8B8D9C8D6A197B098C09F5
:1003D0009D09621A730A840A950AA40193010E9476
:1003E0009C08E218F30804091509A80197010E9466
:1003F000BB0859016A0129813A814B815C81A20EB7
:10040000B31EC41ED51EA216B306C406D5061CF420
:1004100059016A010BC0898D9A8DAB8DBC8D8A15EF
:100420009B05AC05BD0514F45C016D01B501C60169
:100430000F900F900F900F90CF91DF911F910F9120
:10044000FF90EF90DF90CF90BF90AF909F908F90F4
:100450007F906F905F904F903F902F900895809184
:10046000680081608093680080916B008860809351
:100470006B0085B5836085BD80918100826080932B
:10048000810080916F00826080936F0080910D01E8
:1004900090910E0190938900809388008AB18F61BA
:1004A0008AB92091150181E090E002C0880F991F60
:1004B0002A95E2F78BB978942CEB32E044E853E0CC
:1004C0008091200290912102A0912202B0912302FA
:1004D0008D5F9840A040B040E8F08091200290915C
:1004E0002102A0912202B091230288559B41A04095
:1004F000B04080F430930E0120930D013093100131
:1005000020930F01309312012093110130931401B5
:10051000209313018091200290912102A091220248
:10052000B091230289559B41A040B04020F18091B9
:10053000200290912102A0912202B09123028859B9
:100540009A43A040B040B8F48FB7F8946091270266
:10055000709128028FBF50930E0140930D0150936C
:10056000100140930F0150931201409311015093D9
:100570001401409313018091200290912102A091D7
:100580002202B091230289599A43A040B04008F456
:1005900097CF30930E0120930D01309310012093DB
:1005A0000F01309312012093110130931401209315
:1005B000130186CFEF92FF920F931F937B018C0163
:1005C00020E030E040E05FE40E94AA0588238CF040
:1005D000C801B70120E030E040E05FE40E9452042F
:1005E0000E94DA059B01AC01205030404040504849
:1005F00006C0C801B7010E94DA059B01AC01B90130
:10060000CA011F910F91FF90EF900895A0E0B0E014
:10061000ECE0F3E00C94F808DC012B01FA019C916A
:10062000923008F439C1EB018881823008F433C17B
:10063000943069F4843009F02FC111969C91119780
:100640008981981709F428C1A7E1B1E025C1843058
:1006500009F421C18230A9F4923009F01DC19A0138
:10066000AD0188E0EA010990AE01E90109929E011D
:100670008150C1F7E201898111969C918923818380
:1006800008C1923009F407C112962D903C9013973F
:10069000EB018A819B811496AD90BD90CD90DC904A
:1006A0001797EC80FD800E811F819101281B390B6B
:1006B000B90137FF04C066277727621B730B6032CE
:1006C00071050CF061C0121613066CF53701480174
:1006D000062E04C096948794779467940A94D2F770
:1006E00021E030E040E050E004C0220F331F441FFF
:1006F000551F6A95D2F721503040404050402E217E
:100700003F2140235123211531054105510521F099
:1007100021E030E040E050E079018A01E628F72846
:10072000082919293CC0232BD1F1260E371E35018B
:100730004601062E04C096948794779467940A9491
:10074000D2F721E030E040E050E004C0220F331F38
:10075000441F551F6A95D2F7215030404040504009
:100760002A213B214C215D212115310541055105EF
:1007700021F021E030E040E050E059016A01A62874
:10078000B728C828D9280BC0821593052CF01C0166
:10079000AA24BB24650103C0EE24FF24870111961F
:1007A0009C91D20111968C91981709F445C0992318
:1007B00039F0A80197012A193B094C095D0906C0C7
:1007C000A60195012E193F09400B510B57FD08C09A
:1007D00011823382228224833583468357831DC04E
:1007E00081E081833382228288279927DC01821B62
:1007F000930BA40BB50B84839583A683B7830DC09D
:10080000220F331F441F551F24833583468357838C
:1008100082819381019793838283248135814681EC
:100820005781DA01C9010197A109B1098F5F9F4F73
:10083000AF4FBF4328F30BC0918333822282EA0C6F
:10084000FB1C0C1D1D1DE482F5820683178383E0CB
:100850008083248135814681578157FF1AC0C901A1
:10086000AA2797FDA095BA2F81709070A070B070E4
:100870005695479537952795822B932BA42BB52B0F
:1008800084839583A683B783828193810196938322
:100890008283DF0101C0D201CD01CDB7DEB7E2E135
:1008A0000C941409A0E2B0E0E8E5F4E00C9404092B
:1008B00069837A838B839C832D833E834F83588700
:1008C000E9E0EE2EF12CEC0EFD1ECE010196B701F3
:1008D0000E94CB078E010F5E1F4FCE010596B80117
:1008E0000E94CB078A8991E089278A8BC701B801CA
:1008F000AE01475E5F4F0E9406030E94F606A09677
:10090000E6E00C942009A0E2B0E0E9E8F4E00C9401
:10091000040969837A838B839C832D833E834F8371
:100920005887F9E0EF2EF12CEC0EFD1ECE0101965A
:10093000B7010E94CB078E010F5E1F4FCE010596B7
:10094000B8010E94CB07C701B801AE01475E5F4FF7
:100950000E9406030E94F606A096E6E00C94200989
:10096000A0E2B0E0E6EBF4E00C94F80869837A8347
:100970008B839C832D833E834F835887CE010196C2
:10098000BE01675F7F4F0E94CB07CE010596BE0177
:100990006F5E7F4F0E94CB079985923088F08989DE
:1009A0008230C8F0943019F4823051F404C084309D
:1009B00029F4923081F487E191E0C6C0923049F485
:1009C00020E09A858A89981321E02A87CE0109962A
:1009D000BBC0823049F420E09A858A89981321E0CF
:1009E0002A8BCE014196B0C02D843E844F84588816
:1009F0006D887E888F88988CEE24FF248701AA2436
:100A0000BB24650140E050E060E070E0E0E0F0E031
:100A1000C10181709070892BE9F0E60CF71C081D6C
:100A2000191D9A01AB012A0D3B1D4C1D5D1D80E077
:100A300090E0A0E0B0E0E614F7040805190520F402
:100A400081E090E0A0E0B0E0BA01A901480F591F91
:100A50006A1F7B1FAA0CBB1CCC1CDD1C97FE08C0A8
:100A600081E090E0A0E0B0E0A82AB92ACA2ADB2AF7
:100A70003196E032F10549F0660C771C881C991C10
:100A80005694479437942794C3CFFA85EA892B89E3
:100A90003C898B859C85280F391F2E5F3F4F17C0DF
:100AA000CA0181709070892B61F016950795F794B3
:100AB000E79480E090E0A0E0B0E8E82AF92A0A2B69
:100AC0001B2B76956795579547952F5F3F4F77FD81
:100AD000E7CF0CC0440F551F661F771F17FD4160FD
:100AE000EE0CFF1C001F111F21503040403090E0E1
:100AF000590790E0690790E4790760F32B8F3C8FEA
:100B0000DB01CA018F779070A070B07080349105BE
:100B1000A105B10561F447FD0AC0E114F104010526
:100B2000110529F0405C5F4F6F4F7F4F40781A8E60
:100B3000FE1711F081E08A8F4D8F5E8F6F8F78A343
:100B400083E0898FCE0149960E94F606A096E2E1E5
:100B50000C941409A8E1B0E0E0EBF5E00C94040972
:100B600069837A838B839C832D833E834F8358874D
:100B700089E0E82EF12CEC0EFD1ECE010196B701A6
:100B80000E94CB078E010F5E1F4FCE010596B80164
:100B90000E94CB078985823040F08989823028F015
:100BA000C701B8010E94430801C08FEF6896E6E0D4
:100BB0000C942009ACE0B0E0E0EEF5E00C940809FC
:100BC00069837A838B839C83CE010196BE016B5F20
:100BD0007F4F0E94CB078D81823061F1823050F1CE
:100BE000843021F48E81882351F12EC02F813885E5
:100BF00037FD20C06E812F3131051CF06623F9F0DE
:100C000023C08EE190E0821B930B29853A854B85AA
:100C10005C8504C056954795379527958A95D2F7F8
:100C20006623B1F050954095309521953F4F4F4F39
:100C30005F4F0EC020E030E040E050E009C02FEFF1
:100C40003FEF4FEF5FE704C020E030E040E050E8C6
:100C5000B901CA012C96E2E00C942409A8E0B0E0A6
:100C6000E4E3F6E00C9400097B018C016115710549
:100C70008105910519F482E0898360C083E089834E
:100C80008EE1C82ED12CDC82CB82ED82FE820F83D6
:100C90001887C801B7010E94A706FC013197F7FF2A
:100CA0003BC0222733272E1B3F0B57016801022E22
:100CB00004C0D694C794B794A7940A94D2F740E09E
:100CC00050E060E070E081E090E0A0E0B0E004C0BF
:100CD000880F991FAA1FBB1F2A95D2F70197A10958
:100CE000B1098E219F21A023B1230097A105B10551
:100CF00021F041E050E060E070E04A295B296C2976
:100D00007D294D835E836F8378878EE190E08E1B13
:100D10009F0B9C838B8312C0309781F00E2E04C0F2
:100D2000EE0CFF1C001F111F0A94D2F7ED82FE8209
:100D30000F831887CE1ADF0ADC82CB821A82CE019B
:100D400001960E94F6062896EAE00C941C09EF92A0
:100D5000FF920F931F937B018C0180E0E81680E0E7
:100D6000F80681E0080780E0180788F48FEFE8169E
:100D7000F1040105110531F028F088E090E0A0E0D1
:100D8000B0E017C080E090E0A0E0B0E012C080E0EA
:100D9000E81680E0F80680E0080781E0180728F0F0
:100DA00088E190E0A0E0B0E004C080E190E0A0E045
:100DB000B0E020E230E040E050E0281B390B4A0B65
:100DC0005B0B04C016950795F794E7948A95D2F7C4
:100DD000F701E15EFE4F8081281B3109410951096D
:100DE000C9011F910F91FF90EF900895DF92EF924C
:100DF000FF920F931F93FC01E480F5800681178119
:100E0000D1808081823048F480E090E0A0E1B0E0C1
:100E1000E82AF92A0A2B1B2BA5C0843009F49FC0AD
:100E2000823021F4EE24FF24870105C0E114F1048F
:100E30000105110519F4E0E0F0E096C062817381CC
:100E40009FEF623879070CF05BC022E83FEF261B6A
:100E5000370B2A3131052CF020E030E040E050E043
:100E60002AC0B801A701022E04C076956795579550
:100E700047950A94D2F781E090E0A0E0B0E004C08A
:100E8000880F991FAA1FBB1F2A95D2F70197A109A6
:100E9000B1098E219F21A023B1230097A105B1059F
:100EA00021F081E090E0A0E0B0E09A01AB01282BB6
:100EB000392B4A2B5B2BDA01C9018F779070A07018
:100EC000B07080349105A105B10539F427FF09C040
:100ED000205C3F4F4F4F5F4F04C0215C3F4F4F4F4F
:100EE0005F4FE0E0F0E02030A0E03A07A0E04A07E2
:100EF000A0E45A0710F0E1E0F0E079018A0127C090
:100F00006038710564F5FB01E158FF4FD801C70156
:100F10008F779070A070B07080349105A105B105F5
:100F200039F4E7FE0DC080E490E0A0E0B0E004C03A
:100F30008FE390E0A0E0B0E0E80EF91E0A1F1B1F4F
:100F400017FF05C016950795F794E794319687E04B
:100F500016950795F794E7948A95D1F705C0EE2486
:100F6000FF248701EFEFF0E06E2F67956627679506
:100F7000902F9F77D794DD24D7948E2F8695492F75
:100F8000462B582F5D29B701CA011F910F91FF9081
:100F9000EF90DF900895FC01DB01408151812281B7
:100FA000622F6F7770E0221F2227221F9381892FE3
:100FB000880F822B282F30E0991F9927991F1196AF
:100FC0009C93119721153105A9F54115510561052E
:100FD000710511F482E037C082E89FEF13969C936D
:100FE0008E9312979A01AB0167E0220F331F441FC3
:100FF000551F6A95D1F783E08C930DC0220F331FE4
:10100000441F551F12968D919C911397019713962B
:101010009C938E931297203080E0380780E0480739
:1010200080E4580758F314962D933D934D935C93A9
:10103000179708952F3F310579F441155105610542
:10104000710519F484E08C93089564FF03C081E076
:101050008C9312C01C9210C02F57304013963C93B3
:101060002E93129783E08C9387E0440F551F661FE1
:10107000771F8A95D1F7706414964D935D936D93A5
:101080007C93179708951F93DC01FB019C9192308C
:1010900008F447C08081823008F443C0943051F492
:1010A00011961C91843099F58181682F70E0611B45
:1010B00071093FC0843021F0923031F48230B9F1AF
:1010C0008181882389F12DC011961C91119782305E
:1010D000F1F081811817D9F412962D913C91139754
:1010E000828193818217930794F028173907BCF007
:1010F00014968D919D910D90BC91A02D24813581E8
:1011000046815781281739074A075B0718F41123CE
:1011100041F00AC082179307A407B50740F41123D2
:1011200019F061E070E005C06FEF7FEF02C060E092
:1011300070E0CB011F910895629FD001739FF00171
:10114000829FE00DF11D649FE00DF11D929FF00D57
:10115000839FF00D749FF00D659FF00D9927729F8E
:10116000B00DE11DF91F639FB00DE11DF91FBD0119
:10117000CF011124089597FB092E05260ED057FDA7
:1011800004D014D00AD0001C38F450954095309506
:1011900021953F4F4F4F5F4F0895F6F790958095FB
:1011A000709561957F4F8F4F9F4F0895A1E21A2E42
:1011B000AA1BBB1BFD010DC0AA1FBB1FEE1FFF1FFB
:1011C000A217B307E407F50720F0A21BB30BE40B4B
:1011D000F50B661F771F881F991F1A9469F7609592
:1011E0007095809590959B01AC01BD01CF0108954C
:1011F0002F923F924F925F926F927F928F929F9227
:10120000AF92BF92CF92DF92EF92FF920F931F9314
:10121000CF93DF93CDB7DEB7CA1BDB0B0FB6F894C5
:10122000DEBF0FBECDBF09942A88398848885F8405
:101230006E847D848C849B84AA84B984C884DF8076
:10124000EE80FD800C811B81AA81B981CE0FD11D5A
:101250000FB6F894DEBF0FBECDBFED010895F89430
:02126000FFCFBE
:1012620000000041087805D007BC027805FC08FCA4
:1012720008FC08FC0801FF0000000000000000005C
:101282000102020303030304040404040404040526
:1012920005050505050505050505050505050506FB
:1012A20006060606060606060606060606060606DC
:1012B20006060606060606060606060606060607CB
:1012C20007070707070707070707070707070707AC
:1012D200070707070707070707070707070707079C
:1012E200070707070707070707070707070707078C
:1012F200070707070707070707070707070707087B
:10130200080808080808080808080808080808085B
:10131200080808080808080808080808080808084B
:10132200080808080808080808080808080808083B
:10133200080808080808080808080808080808082B
:10134200080808080808080808080808080808081B
:10135200080808080808080808080808080808080B
:1013620008080808080808080808080808080808FB
:1013720008080808080808080808080808080800F3
:00000001FF
