:100000000C9434000C9451000C9451000C9479041D
:100010000C9451000C9451000C9451000C9451001C
:100020000C9451000C9451000C9451000C94450513
:100030000C9451000C9451000C9451000C945100FC
:100040000C9451000C9451000C9451000C945100EC
:100050000C9451000C9451000C9451000C945100DC
:100060000C9451000C94510011241FBECFEFD8E026
:10007000DEBFCDBF12E0A0E0B1E0E8E9FAE102C0E6
:1000800005900D92A032B107D9F712E0A0E2B2E0DC
:1000900001C01D92A734B107E1F70E9453000C94F0
:1000A0004A0D0C9400002F923F924F925F926F92F4
:1000B0007F928F929F92AF92BF92CF92DF92EF92F8
:1000C000FF920F931F93DF93CF9300D000D0CDB753
:1000D000DEB78091680081608093680080916B003A
:1000E0008C6180936B0085B5836085BD80918100B4
:1000F00082608093810080916F00826080936F00A6
:1001000080910D0190910E01909389008093880059
:100110008AB18F618AB92091150181E090E002C017
:10012000880F991F2A95E2F78BB978948091200265
:1001300090912102A0912202B09123028D5F9840FC
:10014000A040B040F8F08091200290912102A0914F
:100150002202B091230288559B41A040B04090F408
:100160008CEB92E090930E0180930D01909310011F
:1001700080930F01909312018093110190931401C9
:10018000809313018091200290912102A09122027C
:10019000B091230289559B41A040B04008F4E5C0CE
:1001A0008091200290912102A0912202B09123021D
:1001B00080549C49A040B04008F0D7C060912D0207
:1001C00070912E02E0903502F09036028090350258
:1001D00090903602882777FD8095982F0E94F3092A
:1001E0005B016C0100E010E0C801B7010E94A50AA4
:1001F0009B01AC01C601B5010E945F0720E030E021
:100200004FE254E40E94BD077B018C0160ED77E072
:100210006819790980E090E00E94A50A9B01AC0171
:10022000C801B7010E94B70820E030E04FE254E473
:100230000E9490070E94E7051B012C017A836983C5
:100240006091310270913202E0903A02F0903B02EC
:1002500080903A0290903B0260902F0270903002A2
:1002600040903F025090400280913F0290914002A6
:100270009C838B8330920E0120920D01882777FD9D
:100280008095982F0E94F3095B016C0100E010E05B
:10029000C801B7010E94A50A9B01AC01C601B501C6
:1002A0000E945F0720E030E046E953E40E94BD076A
:1002B0007B018C0160ED77E06819790980E090E0BE
:1002C0000E94A50A9B01AC01C801B7010E94B708B2
:1002D00020E030E040E050E00E9490070E94E705F7
:1002E000620D731D7093100160930F013092120123
:1002F00020921101882477FC8094982CC401B301CA
:100300000E94F3097B018C01B20180E090E00E9421
:10031000A50A9B01AC01C801B7010E945F0720E05C
:1003200030E046E953E40E94BD077B018C0160ED9B
:1003300077E08B819C81681B790B80E090E00E94C4
:10034000A50A9B01AC01C801B7010E94B70820E0D3
:1003500030E040E050E00E9490070E94E705620D07
:10036000731D70931401609313018091200290918A
:100370002102A0912202B091230281549C49A04005
:10038000B04008F4D3CE8CEB92E090930E018093B2
:100390000D019093100180930F01909312018093AF
:1003A00011019093140180931301C0CEAF92BF92BC
:1003B000CF92DF92EF92FF920F931F936091840090
:1003C0007091850083B190912C02982783B180931E
:1003D0002C0280914402882309F0D2C092FF80C28F
:1003E00080912C0282FF05C070932B0260932A0239
:1003F00077C280912A0290912B028617970748F4C2
:1004000080912A0290912B02681B790B80E090E08A
:1004100012C020912A0230912B0280E090E06050BF
:1004200070408F4F9F4F442737FD4095542F621BDC
:10043000730B840B950B0E94A50A20E030E040E08E
:1004400051E40E94BD0720E030E040E05EE30E94FE
:10045000BD070E94E705CB01885E93408957954010
:1004600008F035C27093300260932F0281E08093D0
:1004700044028091200290912102A0912202B09129
:100480002302895E9340A040B040A8F180912002F1
:1004900090912102A0912202B0912302805D9740A9
:1004A000A040B04040F580914102909142028056B8
:1004B0009A4E08F015C280913F02909140028054FC
:1004C0009C4908F00DC28091410290914202019630
:1004D000909342028093410220913F02309140026A
:1004E00080912F0290913002820F931F90934002CF
:1004F00080933F02F5C180914302882309F0F0C147
:100500008091200290912102A0912202B0912302B9
:10051000815D9740A040B04008F4E2C18091200284
:1005200090912102A0912202B0912302885B9B400E
:10053000A040B04008F0D4C160913F0270914002E9
:10054000E0904102F090420280E090E00E94A50A13
:100550005B016C0100E010E0C801B7010E94A50A30
:100560009B01AC01C601B5010E94B7080E94E705D6
:100570007093400260933F0281E080934302B0C1D8
:10058000813009F0D2C093FFABC180912C0283FF70
:1005900005C07093270260932602A2C180912602B3
:1005A000909127028617970748F480912602909130
:1005B0002702681B790B80E090E012C02091260290
:1005C0003091270280E090E0605070408F4F9F4F45
:1005D000442737FD4095542F621B730B840B950BFA
:1005E0000E94A50A20E030E040E051E40E94BD07EF
:1005F00020E030E040E05EE30E94BD070E94E70596
:10060000CB01885E93408957954008F060C1709394
:100610002E0260932D0282E080934402809120029A
:1006200090912102A0912202B0912302895E934011
:10063000A040B040A8F18091200290912102A091A9
:100640002202B0912302805D9740A040B04040F567
:10065000809137029091380280569A4E08F040C13E
:10066000809135029091360280549C4908F038C13F
:1006700080913702909138020196909338028093CE
:100680003702209135023091360280912D029091EF
:100690002E02820F931F909336028093350220C161
:1006A00080913902882309F01BC18091200290912A
:1006B0002102A0912202B0912302815D9740A040C7
:1006C000B04008F40DC18091200290912102A091C8
:1006D0002202B0912302885B9B40A040B04008F00A
:1006E000FFC06091350270913602E0903702F090C1
:1006F000380280E090E00E94A50A5B016C0100E0F6
:1007000010E0C801B7010E94A50A9B01AC01C60117
:10071000B5010E94B7080E94E70570933602609306
:10072000350281E080933902DBC0823009F0D8C005
:1007300094FFD6C080912C0284FF05C070932902DB
:1007400060932802CDC080912802909129028617DB
:10075000970748F48091280290912902681B790B31
:1007600080E090E012C0209128023091290280E0C0
:1007700090E0605070408F4F9F4F442737FD409569
:10078000542F621B730B840B950B0E94A50A20E06B
:1007900030E040E051E40E94BD0720E030E040E05E
:1007A0005EE30E94BD070E94E705CB01885E93408F
:1007B0008957954008F08BC07093320260933102E4
:1007C000109244028091200290912102A091220275
:1007D000B0912302895E9340A040B040A8F180917F
:1007E000200290912102A0912202B0912302805D0B
:1007F0009740A040B04040F580913C0290913D026E
:1008000080569A4E08F06CC080913A0290913B025B
:1008100080549C4908F064C080913C0290913D0254
:10082000019690933D0280933C0220913A023091D0
:100830003B028091310290913202820F931F90937C
:100840003B0280933A024CC080913E02882309F01B
:1008500047C08091200290912102A0912202B09184
:100860002302815D9740A040B040D0F180912002EA
:1008700090912102A0912202B0912302885B9B40BB
:10088000A040B04068F560913A0270913B02E09060
:100890003C02F0903D0280E090E00E94A50A5B01DE
:1008A0006C0100E010E0C801B7010E94A50A9B019D
:1008B000AC01C601B5010E94B7080E94E70570931C
:1008C0003B0260933A0281E080933E0209C080912E
:1008D000450290914602019690934602809345020C
:1008E0001F910F91FF90EF90DF90CF90BF90AF904E
:1008F00008951F920F920FB60F9211242F933F93DA
:100900004F935F936F937F938F939F93AF93BF9317
:10091000EF93FF930E94D601FF91EF91BF91AF91AA
:100920009F918F917F916F915F914F913F912F9107
:100930000F900FBE0F901F9018950E94A50A20E0FF
:1009400030E040E051E40E94BD0720E030E040E0AC
:100950005EE30E94BD070E94E7059B01AC01CA014E
:1009600008950F931F9340918400509185008091CA
:10097000150187FF31C081E0809315012BB13091C3
:10098000150181E090E002C0880F991F3A95E2F7C7
:10099000282B2BB9509325024093240280910D01FE
:1009A00090910E01840F951F909389008093880089
:1009B0008091200290912102A0912202B091230205
:1009C0004496A11DB11D8093200290932102A09313
:1009D0002202B093230256C080911501843094F511
:1009E000E0911501FF27E7FDF095EE0FFF1FE35F94
:1009F000FE4F80819181840F951F90938900809391
:100A000088004BB18091150121E030E0B90102C0AE
:100A1000660F771F8A95E2F7CB01809584238BB907
:100A20004BB180911501992787FD9095019602C0E1
:100A3000220F331F8A95E2F7422B4BB980911501A3
:100A40008F5F1EC03BB12091150181E090E002C094
:100A5000880F991F2A95E2F7809583238BB900911F
:100A600024021091250260E27EE480E090E00E9482
:100A70009D04060F171F10938900009388008FEFC5
:100A8000809315011F910F9108951F920F920FB639
:100A90000F9211242F933F934F935F936F937F9304
:100AA0008F939F93AF93BF93EF93FF930E94B104F3
:100AB000FF91EF91BF91AF919F918F917F916F9136
:100AC0005F914F913F912F910F900FBE0F901F900C
:100AD00018950E94A50A20E030E040E051E40E9411
:100AE000BD0720E030E040E05EE30E94BD070E94C9
:100AF000E7059B01AC01CA0108952F923F924F92E6
:100B00005F926F927F928F929F92AF92BF92CF929D
:100B1000DF92EF92FF920F931F93DF93CF93CDB7A6
:100B2000DEB739014A01150126010E945F075B010A
:100B30006C016D897E898F89988DA20191010E9437
:100B40005F079B01AC01C601B5010E94BD075B01B7
:100B50006C01C801B701A40193010E945F079B01CA
:100B6000AC01C601B5010E94B708A20191010E9423
:100B700090077B018C01A20191010E94C309882387
:100B80001CF4820171010EC0C801B7012D893E8994
:100B90004F89588D0E946309181624F4ED88FE8849
:100BA0000F89188DB701C801CF91DF911F910F9167
:100BB000FF90EF90DF90CF90BF90AF909F908F907D
:100BC0007F906F905F904F903F902F900895EF929D
:100BD000FF920F931F937B018C0120E030E040E0F7
:100BE0005FE40E94930988238CF0C801B70120E0DC
:100BF00030E040E05FE40E945F070E94510A9B01E1
:100C0000AC01205030404040504806C0C801B701F8
:100C10000E94510A9B01AC01B901CA011F910F91B9
:100C2000FF90EF900895A0E0B0E0E9E1F6E00C94C9
:100C3000130DDC012B01FA019C91923008F439C1AB
:100C4000EB018881823008F433C1943069F4843038
:100C500009F02FC111969C9111978981981709F479
:100C600028C1A7E1B1E025C1843009F421C1823057
:100C7000A9F4923009F01DC19A01AD0188E0EA01A2
:100C80000990AE01E90109929E018150C1F7E2018C
:100C9000898111969C918923818308C1923009F43E
:100CA00007C112962D903C901397EB018A819B818E
:100CB0001496AD90BD90CD90DC901797EC80FD80A0
:100CC0000E811F819101281B390BB90137FF04C028
:100CD00066277727621B730B603271050CF061C0C9
:100CE000121613066CF537014801062E04C09694BF
:100CF0008794779467940A94D2F721E030E040E03B
:100D000050E004C0220F331F441F551F6A95D2F7CD
:100D100021503040404050402E213F21402351235C
:100D2000211531054105510521F021E030E040E079
:100D300050E079018A01E628F728082919293CC0E2
:100D4000232BD1F1260E371E35014601062E04C095
:100D500096948794779467940A94D2F721E030E0D0
:100D600040E050E004C0220F331F441F551F6A9516
:100D7000D2F721503040404050402A213B214C21A5
:100D80005D21211531054105510521F021E030E0BB
:100D900040E050E059016A01A628B728C828D928A0
:100DA0000BC0821593052CF01C01AA24BB246501FD
:100DB00003C0EE24FF24870111969C91D201119665
:100DC0008C91981709F445C0992339F0A80197012F
:100DD0002A193B094C095D0906C0A60195012E1987
:100DE0003F09400B510B57FD08C01182338222820C
:100DF00024833583468357831DC081E081833382FA
:100E0000228288279927DC01821B930BA40BB50B48
:100E100084839583A683B7830DC0220F331F441F9D
:100E2000551F24833583468357838281938101979D
:100E3000938382832481358146815781DA01C901F8
:100E40000197A109B1098F5F9F4FAF4FBF4328F3AF
:100E50000BC0918333822282EA0CFB1C0C1D1D1DEA
:100E6000E482F5820683178383E0808324813581C1
:100E70004681578157FF1AC0C901AA2797FDA0953F
:100E8000BA2F81709070A070B070569547953795C5
:100E90002795822B932BA42BB52B84839583A68334
:100EA000B78382819381019693838283DF0101C09E
:100EB000D201CD01CDB7DEB7E2E10C942F0DA0E257
:100EC000B0E0E5E6F7E00C941F0D69837A838B832D
:100ED0009C832D833E834F835887E9E0EE2EF12CCF
:100EE000EC0EFD1ECE010196B7010E94420C8E0150
:100EF0000F5E1F4FCE010596B8010E94420C8A89F1
:100F000091E089278A8BC701B801AE01475E5F4F28
:100F10000E9413060E946D0BA096E6E00C943B0D18
:100F2000A0E2B0E0E6E9F7E00C941F0D69837A8354
:100F30008B839C832D833E834F835887F9E0EF2E6C
:100F4000F12CEC0EFD1ECE010196B7010E94420C61
:100F50008E010F5E1F4FCE010596B8010E94420C14
:100F6000C701B801AE01475E5F4F0E9413060E94A1
:100F70006D0BA096E6E00C943B0DA0E2B0E0E3EC34
:100F8000F7E00C94130D69837A838B839C832D8304
:100F90003E834F835887CE010196BE01675F7F4F26
:100FA0000E94420CCE010596BE016F5E7F4F0E94EB
:100FB000420C9985923088F089898230C8F094304B
:100FC00019F4823051F404C0843029F4923081F451
:100FD00087E191E0C6C0923049F420E09A858A8981
:100FE000981321E02A87CE010996BBC0823049F4CC
:100FF00020E09A858A89981321E02A8BCE014196B8
:10100000B0C02D843E844F8458886D887E888F8838
:10101000988CEE24FF248701AA24BB24650140E0BC
:1010200050E060E070E0E0E0F0E0C10181709070BD
:10103000892BE9F0E60CF71C081D191D9A01AB017C
:101040002A0D3B1D4C1D5D1D80E090E0A0E0B0E04E
:10105000E614F7040805190520F481E090E0A0E00B
:10106000B0E0BA01A901480F591F6A1F7B1FAA0CE3
:10107000BB1CCC1CDD1C97FE08C081E090E0A0E00A
:10108000B0E0A82AB92ACA2ADB2A3196E032F10553
:1010900049F0660C771C881C991C56944794379429
:1010A0002794C3CFFA85EA892B893C898B859C8557
:1010B000280F391F2E5F3F4F17C0CA0181709070F3
:1010C000892B61F016950795F794E79480E090E0FE
:1010D000A0E0B0E8E82AF92A0A2B1B2B7695679541
:1010E000579547952F5F3F4F77FDE7CF0CC0440FD3
:1010F000551F661F771F17FD4160EE0CFF1C001F78
:10110000111F21503040403090E0590790E06907AE
:1011100090E4790760F32B8F3C8FDB01CA018F7756
:101120009070A070B07080349105A105B10561F494
:1011300047FD0AC0E114F1040105110529F0405CE6
:101140005F4F6F4F7F4F40781A8EFE1711F081E08E
:101150008A8F4D8F5E8F6F8F78A383E0898FCE014A
:1011600049960E946D0BA096E2E10C942F0DA8E128
:10117000B0E0EDEBF8E00C941B0D69837A838B8370
:101180009C832D833E834F835887B9E0EB2EF12C4F
:10119000EC0EFD1ECE010196B7010E94420C8E019D
:1011A0000F5E1F4FCE010596B8010E94420C2985A3
:1011B000223008F47EC03989323010F4B8017CC086
:1011C0008A859A8989278A87243011F0223031F460
:1011D000231709F06EC067E171E06EC0343039F456
:1011E0001D861E861F86188A1C861B8604C0323008
:1011F00021F484E08987B7015FC02B853C858B890A
:101200009C89281B390B3C872B87ED84FE840F8536
:101210001889AD88BE88CF88D88CEA14FB040C05E9
:101220001D0540F4EE0CFF1C001F111F2150304023
:101230003C872B8720E030E040E050E080E090E009
:10124000A0E0B0E460E070E0EA14FB040C051D05CA
:1012500040F0282B392B4A2B5B2BEA18FB080C0992
:101260001D09B695A79597958795EE0CFF1C001F55
:10127000111F6F5F7F4F6F31710531F7DA01C901BF
:101280008F779070A070B07080349105A105B10582
:1012900061F427FD0AC0E114F1040105110529F0EC
:1012A000205C3F4F4F4F5F4F20782D873E874F8701
:1012B000588BBE01675F7F4FCB010E946D0B689614
:1012C000EAE00C94370DA8E1B0E0E9E6F9E00C940F
:1012D0001F0D69837A838B839C832D833E834F8389
:1012E000588789E0E82EF12CEC0EFD1ECE01019608
:1012F000B7010E94420C8E010F5E1F4FCE01059672
:10130000B8010E94420C8985823040F08989823080
:1013100028F0C701B8010E94BA0C01C08FEF68968F
:10132000E6E00C943B0DA8E1B0E0E9E9F9E00C94AB
:101330001F0D69837A838B839C832D833E834F8328
:10134000588789E0E82EF12CEC0EFD1ECE010196A7
:10135000B7010E94420C8E010F5E1F4FCE01059611
:10136000B8010E94420C8985823040F08989823020
:1013700028F0C701B8010E94BA0C01C08FEF68962F
:10138000E6E00C943B0DA8E1B0E0E9ECF9E00C9448
:101390001F0D69837A838B839C832D833E834F83C8
:1013A000588789E0E82EF12CEC0EFD1ECE01019647
:1013B000B7010E94420C8E010F5E1F4FCE010596B1
:1013C000B8010E94420C8985823040F089898230C0
:1013D00028F0C701B8010E94BA0C01C081E06896EC
:1013E000E6E00C943B0DA8E0B0E0E9EFF9E00C94E6
:1013F0001C0D9B01AC0183E08983DA01C9018827B8
:10140000B7FD83959927AA27BB27B82E211531054B
:101410004105510519F482E089833AC08823A9F077
:10142000203080E0380780E0480780E8580729F43A
:1014300060E070E080E09FEC30C0EE24FF24870184
:10144000E21AF30A040B150B02C079018A018EE13E
:10145000C82ED12CDC82CB82ED82FE820F831887CE
:10146000C801B7010E941E0B01971816190684F4D3
:10147000082E04C0EE0CFF1C001F111F0A94D2F7A7
:10148000ED82FE820F831887C81AD90ADC82CB82CC
:10149000BA82CE0101960E946D0B2896E9E00C9469
:1014A000380DACE0B0E0E7E5FAE00C94230D698379
:1014B0007A838B839C83CE010196BE016B5F7F4F45
:1014C0000E94420C8D81823061F1823050F1843073
:1014D00021F48E81882351F12EC02F81388537FD6C
:1014E00020C06E812F3131051CF06623F9F023C036
:1014F0008EE190E0821B930B29853A854B855C85B4
:1015000004C056954795379527958A95D2F7662357
:10151000B1F050954095309521953F4F4F4F5F4F1B
:101520000EC020E030E040E050E009C02FEF3FEF78
:101530004FEF5FE704C020E030E040E050E8B90141
:10154000CA012C96E2E00C943F0DA8E0B0E0EBEA73
:10155000FAE00C941B0D7B018C016115710581056E
:10156000910519F482E0898360C083E089838EE16C
:10157000C82ED12CDC82CB82ED82FE820F831887AD
:10158000C801B7010E941E0BFC013197F7FF3BC059
:10159000222733272E1B3F0B57016801022E04C060
:1015A000D694C794B794A7940A94D2F740E050E039
:1015B00060E070E081E090E0A0E0B0E004C0880F5F
:1015C000991FAA1FBB1F2A95D2F70197A109B1093C
:1015D0008E219F21A023B1230097A105B10521F001
:1015E00041E050E060E070E04A295B296C297D29E8
:1015F0004D835E836F8378878EE190E08E1B9F0B17
:101600009C838B8312C0309781F00E2E04C0EE0CA9
:10161000FF1C001F111F0A94D2F7ED82FE820F8378
:101620001887CE1ADF0ADC82CB821A82CE0101969D
:101630000E946D0B2896EAE00C94370DEF92FF9212
:101640000F931F937B018C0180E0E81680E0F80681
:1016500081E0080780E0180788F48FEFE816F104AE
:101660000105110531F028F088E090E0A0E0B0E03D
:1016700017C080E090E0A0E0B0E012C080E0E81683
:1016800080E0F80680E0080781E0180728F088E18C
:1016900090E0A0E0B0E004C080E190E0A0E0B0E025
:1016A00020E230E040E050E0281B390B4A0B5B0B96
:1016B00004C016950795F794E7948A95D2F7F70139
:1016C000E15EFE4F8081281B310941095109C901A2
:1016D0001F910F91FF90EF900895DF92EF92FF928C
:1016E0000F931F93FC01E480F58006811781D18060
:1016F0008081823048F480E090E0A0E1B0E0E82A08
:10170000F92A0A2B1B2BA5C0843009F49FC0823014
:1017100021F4EE24FF24870105C0E114F104010542
:10172000110519F4E0E0F0E096C0628173819FEF4B
:10173000623879070CF05BC022E83FEF261B370BBD
:101740002A3131052CF020E030E040E050E02AC0A2
:10175000B801A701022E04C0769567955795479565
:101760000A94D2F781E090E0A0E0B0E004C0880FD6
:10177000991FAA1FBB1F2A95D2F70197A109B1098A
:101780008E219F21A023B1230097A105B10521F04F
:1017900081E090E0A0E0B0E09A01AB01282B392B6A
:1017A0004A2B5B2BDA01C9018F779070A070B07063
:1017B00080349105A105B10539F427FF09C0205CEB
:1017C0003F4F4F4F5F4F04C0215C3F4F4F4F5F4F24
:1017D000E0E0F0E02030A0E03A07A0E04A07A0E413
:1017E0005A0710F0E1E0F0E079018A0127C0603883
:1017F000710564F5FB01E158FF4FD801C7018F77F0
:101800009070A070B07080349105A105B10539F4D5
:10181000E7FE0DC080E490E0A0E0B0E004C08FE3FC
:1018200090E0A0E0B0E0E80EF91E0A1F1B1F17FFB2
:1018300005C016950795F794E794319687E01695BD
:101840000795F794E7948A95D1F705C0EE24FF2415
:101850008701EFEFF0E06E2F679566276795902F71
:101860009F77D794DD24D7948E2F8695492F462BCA
:10187000582F5D29B701CA011F910F91FF90EF907A
:10188000DF900895FC01DB01408151812281622FAC
:101890006F7770E0221F2227221F9381892F880FE4
:1018A000822B282F30E0991F9927991F11969C931E
:1018B000119721153105A9F54115510561057105EE
:1018C00011F482E037C082E89FEF13969C938E93C9
:1018D00012979A01AB0167E0220F331F441F551F77
:1018E0006A95D1F783E08C930DC0220F331F441FFC
:1018F000551F12968D919C911397019713969C9367
:101900008E931297203080E0380780E0480780E40B
:10191000580758F314962D933D934D935C93179766
:1019200008952F3F310579F4411551056105710581
:1019300019F484E08C93089564FF03C081E08C93D4
:1019400012C01C9210C02F57304013963C932E9318
:10195000129783E08C9387E0440F551F661F771F13
:101960008A95D1F7706414964D935D936D937C9333
:10197000179708951F93DC01FB019C91923008F4A6
:1019800047C08081823008F443C0943051F41196EE
:101990001C91843099F58181682F70E0611B710979
:1019A0003FC0843021F0923031F48230B9F181812E
:1019B000882389F12DC011961C9111978230F1F086
:1019C00081811817D9F412962D913C911397828139
:1019D00093818217930794F028173907BCF0149667
:1019E0008D919D910D90BC91A02D248135814681D2
:1019F0005781281739074A075B0718F4112341F06C
:101A00000AC082179307A407B50740F4112319F001
:101A100061E070E005C06FEF7FEF02C060E070E052
:101A2000CB011F9108952F923F924F925F926F9238
:101A30007F928F929F92AF92BF92CF92DF92EF925E
:101A4000FF920F931F93CF93DF93CDB7DEB7CA1BDF
:101A5000DB0B0FB6F894DEBF0FBECDBF09942A880A
:101A6000398848885F846E847D848C849B84AA84B2
:101A7000B984C884DF80EE80FD800C811B81AA813F
:101A8000B981CE0FD11D0FB6F894DEBF0FBECDBF0A
:081A9000ED010895F894FFCF69
:101A980000000041087805D007BC027805FC08FC66
:101AA80008FC08FC0801FF0000000000000000001E
:101AB80001020203030303040404040404040405E8
:101AC80005050505050505050505050505050506BD
:101AD800060606060606060606060606060606069E
:101AE800060606060606060606060606060606078D
:101AF800070707070707070707070707070707076E
:101B0800070707070707070707070707070707075D
:101B1800070707070707070707070707070707074D
:101B2800070707070707070707070707070707083C
:101B3800080808080808080808080808080808081D
:101B4800080808080808080808080808080808080D
:101B580008080808080808080808080808080808FD
:101B680008080808080808080808080808080808ED
:101B780008080808080808080808080808080808DD
:101B880008080808080808080808080808080808CD
:101B980008080808080808080808080808080808BD
:101BA80008080808080808080808080808080800B5
:00000001FF
